{
  "_format": "hh-sol-artifact-1",
  "contractName": "InheritanceManager",
  "sourceName": "contracts/InheritanceManager.sol",
  "abi": [
    {
      "anonymous": false,
      "inputs": [
        {
          "indexed": true,
          "internalType": "address",
          "name": "owner",
          "type": "address"
        },
        {
          "indexed": true,
          "internalType": "address",
          "name": "beneficiary",
          "type": "address"
        },
        {
          "indexed": false,
          "internalType": "uint256",
          "name": "amount",
          "type": "uint256"
        }
      ],
      "name": "BeneficiaryAdded",
      "type": "event"
    },
    {
      "anonymous": false,
      "inputs": [
        {
          "indexed": true,
          "internalType": "address",
          "name": "owner",
          "type": "address"
        },
        {
          "indexed": true,
          "internalType": "address",
          "name": "validator",
          "type": "address"
        },
        {
          "indexed": false,
          "internalType": "uint256",
          "name": "confirmationCount",
          "type": "uint256"
        }
      ],
      "name": "DeathConfirmed",
      "type": "event"
    },
    {
      "anonymous": false,
      "inputs": [
        {
          "indexed": true,
          "internalType": "address",
          "name": "owner",
          "type": "address"
        }
      ],
      "name": "InheritanceCreated",
      "type": "event"
    },
    {
      "anonymous": false,
      "inputs": [
        {
          "indexed": true,
          "internalType": "address",
          "name": "owner",
          "type": "address"
        }
      ],
      "name": "InheritanceDistributed",
      "type": "event"
    },
    {
      "anonymous": false,
      "inputs": [
        {
          "indexed": true,
          "internalType": "address",
          "name": "owner",
          "type": "address"
        },
        {
          "indexed": true,
          "internalType": "address",
          "name": "validator",
          "type": "address"
        }
      ],
      "name": "ValidatorAdded",
      "type": "event"
    },
    {
      "inputs": [
        {
          "internalType": "address",
          "name": "beneficiaryAddress",
          "type": "address"
        },
        {
          "internalType": "uint256",
          "name": "amount",
          "type": "uint256"
        }
      ],
      "name": "addBeneficiary",
      "outputs": [],
      "stateMutability": "payable",
      "type": "function"
    },
    {
      "inputs": [
        {
          "internalType": "address",
          "name": "validatorAddress",
          "type": "address"
        }
      ],
      "name": "addValidator",
      "outputs": [],
      "stateMutability": "nonpayable",
      "type": "function"
    },
    {
      "inputs": [
        {
          "internalType": "uint256",
          "name": "",
          "type": "uint256"
        }
      ],
      "name": "allInheritances",
      "outputs": [
        {
          "internalType": "address",
          "name": "",
          "type": "address"
        }
      ],
      "stateMutability": "view",
      "type": "function"
    },
    {
      "inputs": [
        {
          "internalType": "address",
          "name": "owner",
          "type": "address"
        }
      ],
      "name": "confirmDeath",
      "outputs": [],
      "stateMutability": "nonpayable",
      "type": "function"
    },
    {
      "inputs": [],
      "name": "createInheritance",
      "outputs": [],
      "stateMutability": "nonpayable",
      "type": "function"
    },
    {
      "inputs": [
        {
          "internalType": "address",
          "name": "owner",
          "type": "address"
        },
        {
          "internalType": "uint256",
          "name": "index",
          "type": "uint256"
        }
      ],
      "name": "getBeneficiary",
      "outputs": [
        {
          "internalType": "address",
          "name": "wallet",
          "type": "address"
        },
        {
          "internalType": "uint256",
          "name": "amount",
          "type": "uint256"
        }
      ],
      "stateMutability": "view",
      "type": "function"
    },
    {
      "inputs": [
        {
          "internalType": "address",
          "name": "owner",
          "type": "address"
        }
      ],
      "name": "getBeneficiaryCount",
      "outputs": [
        {
          "internalType": "uint256",
          "name": "",
          "type": "uint256"
        }
      ],
      "stateMutability": "view",
      "type": "function"
    },
    {
      "inputs": [],
      "name": "getInheritanceBalance",
      "outputs": [
        {
          "internalType": "uint256",
          "name": "",
          "type": "uint256"
        }
      ],
      "stateMutability": "view",
      "type": "function"
    },
    {
      "inputs": [],
      "name": "getInheritanceDetails",
      "outputs": [
        {
          "internalType": "bool",
          "name": "isActive",
          "type": "bool"
        },
        {
          "internalType": "uint256",
          "name": "totalShares",
          "type": "uint256"
        },
        {
          "internalType": "uint256",
          "name": "totalAmount",
          "type": "uint256"
        },
        {
          "internalType": "uint256",
          "name": "currentBalance",
          "type": "uint256"
        }
      ],
      "stateMutability": "view",
      "type": "function"
    },
    {
      "inputs": [
        {
          "internalType": "address",
          "name": "owner",
          "type": "address"
        }
      ],
      "name": "getInheritanceStatus",
      "outputs": [
        {
          "internalType": "bool",
          "name": "isActive",
          "type": "bool"
        },
        {
          "internalType": "bool",
          "name": "isDead",
          "type": "bool"
        },
        {
          "internalType": "uint256",
          "name": "confirmationCount",
          "type": "uint256"
        },
        {
          "internalType": "uint256",
          "name": "requiredConfirmations",
          "type": "uint256"
        },
        {
          "internalType": "bool",
          "name": "distributed",
          "type": "bool"
        }
      ],
      "stateMutability": "view",
      "type": "function"
    },
    {
      "inputs": [
        {
          "internalType": "address",
          "name": "owner",
          "type": "address"
        },
        {
          "internalType": "uint256",
          "name": "index",
          "type": "uint256"
        }
      ],
      "name": "getValidator",
      "outputs": [
        {
          "internalType": "address",
          "name": "",
          "type": "address"
        }
      ],
      "stateMutability": "view",
      "type": "function"
    },
    {
      "inputs": [
        {
          "internalType": "address",
          "name": "owner",
          "type": "address"
        },
        {
          "internalType": "uint256",
          "name": "index",
          "type": "uint256"
        }
      ],
      "name": "getValidatorConfirmation",
      "outputs": [
        {
          "internalType": "bool",
          "name": "",
          "type": "bool"
        }
      ],
      "stateMutability": "view",
      "type": "function"
    },
    {
      "inputs": [
        {
          "internalType": "address",
          "name": "owner",
          "type": "address"
        }
      ],
      "name": "getValidatorCount",
      "outputs": [
        {
          "internalType": "uint256",
          "name": "",
          "type": "uint256"
        }
      ],
      "stateMutability": "view",
      "type": "function"
    },
    {
      "inputs": [
        {
          "internalType": "address",
          "name": "owner",
          "type": "address"
        },
        {
          "internalType": "address",
          "name": "validator",
          "type": "address"
        }
      ],
      "name": "getValidatorIndex",
      "outputs": [
        {
          "internalType": "uint256",
          "name": "",
          "type": "uint256"
        }
      ],
      "stateMutability": "view",
      "type": "function"
    },
    {
      "inputs": [
        {
          "internalType": "address",
          "name": "validator",
          "type": "address"
        }
      ],
      "name": "getValidatorInheritances",
      "outputs": [
        {
          "internalType": "address[]",
          "name": "",
          "type": "address[]"
        }
      ],
      "stateMutability": "view",
      "type": "function"
    },
    {
      "inputs": [
        {
          "internalType": "address",
          "name": "",
          "type": "address"
        }
      ],
      "name": "inheritances",
      "outputs": [
        {
          "internalType": "bool",
          "name": "isActive",
          "type": "bool"
        },
        {
          "internalType": "bool",
          "name": "isDead",
          "type": "bool"
        },
        {
          "internalType": "uint256",
          "name": "confirmationCount",
          "type": "uint256"
        },
        {
          "internalType": "uint256",
          "name": "requiredConfirmations",
          "type": "uint256"
        },
        {
          "internalType": "uint256",
          "name": "beneficiaryCount",
          "type": "uint256"
        },
        {
          "internalType": "uint256",
          "name": "validatorCount",
          "type": "uint256"
        },
        {
          "internalType": "uint256",
          "name": "totalShares",
          "type": "uint256"
        },
        {
          "internalType": "bool",
          "name": "distributed",
          "type": "bool"
        },
        {
          "internalType": "uint256",
          "name": "totalAmount",
          "type": "uint256"
        }
      ],
      "stateMutability": "view",
      "type": "function"
    },
    {
      "inputs": [
        {
          "internalType": "address",
          "name": "owner",
          "type": "address"
        },
        {
          "internalType": "address",
          "name": "validator",
          "type": "address"
        }
      ],
      "name": "isValidator",
      "outputs": [
        {
          "internalType": "bool",
          "name": "",
          "type": "bool"
        }
      ],
      "stateMutability": "view",
      "type": "function"
    },
    {
      "inputs": [],
      "name": "sendInheritanceAmount",
      "outputs": [],
      "stateMutability": "payable",
      "type": "function"
    },
    {
      "stateMutability": "payable",
      "type": "receive"
    }
  ],
  "bytecode": "0x608060405234801561001057600080fd5b50611823806100206000396000f3fe60806040526004361061010d5760003560e01c806396074e7011610095578063af43715f11610064578063af43715f146103e4578063b5018db714610404578063d74ea1e514610431578063e5a489a714610489578063f9560e45146104a957600080fd5b806396074e701461038957806399b4331d1461039c578063aab7c6d7146103a4578063ad81907a146103c457600080fd5b806349d1a060116100dc57806349d1a060146101f35780634d238c8e146102795780636122fed51461029957806378bfecaf146103445780637bc024031461037457600080fd5b80630a6cef461461011957806315889d991461015d57806319b699f2146101745780632423c7f3146101ac57600080fd5b3661011457005b600080fd5b34801561012557600080fd5b50610139610134366004611632565b6104e2565b604080516001600160a01b0390931683526020830191909152015b60405180910390f35b34801561016957600080fd5b506101726105df565b005b34801561018057600080fd5b5061019461018f36600461165c565b6106f9565b6040516001600160a01b039091168152602001610154565b3480156101b857600080fd5b506101e56101c7366004611675565b6001600160a01b031660009081526020819052604090206004015490565b604051908152602001610154565b3480156101ff57600080fd5b5061024d61020e366004611675565b6001600160a01b0316600090815260208190526040902080546001820154600283015460089093015460ff808416956101009094048116949293911690565b60408051951515865293151560208601529284019190915260608301521515608082015260a001610154565b34801561028557600080fd5b50610172610294366004611675565b610723565b3480156102a557600080fd5b506102fc6102b4366004611675565b6000602081905290815260409020805460018201546002830154600484015460068501546007860154600887015460099097015460ff80881698610100909804811697169089565b604080519915158a5297151560208a0152968801959095526060870193909352608086019190915260a085015260c0840152151560e083015261010082015261012001610154565b34801561035057600080fd5b5061036461035f366004611632565b610975565b6040519015158152602001610154565b34801561038057600080fd5b506101e5610a06565b610172610397366004611632565b610a6a565b610172610cb5565b3480156103b057600080fd5b506101726103bf366004611675565b610db7565b3480156103d057600080fd5b506101946103df366004611632565b6110e4565b3480156103f057600080fd5b506101e56103ff366004611697565b611169565b34801561041057600080fd5b5061042461041f366004611675565b611277565b60405161015491906116ca565b34801561043d57600080fd5b506104673360009081526020819052604090208054600782015460099092015460ff909116924790565b6040805194151585526020850193909352918301526060820152608001610154565b34801561049557600080fd5b506103646104a4366004611697565b6113ca565b3480156104b557600080fd5b506101e56104c4366004611675565b6001600160a01b031660009081526020819052604090206006015490565b6001600160a01b038216600090815260208190526040812054819060ff166105495760405162461bcd60e51b8152602060048201526015602482015274125b9a195c9a5d185b98d9481b9bdd08199bdd5b99605a1b60448201526064015b60405180910390fd5b6001600160a01b03841660009081526020819052604090206004015483106105ab5760405162461bcd60e51b815260206004820152601560248201527410995b99599a58da585c9e481b9bdd08199bdd5b99605a1b6044820152606401610540565b50506001600160a01b0391821660009081526020818152604080832093835260039093019052208054600190910154911691565b3360009081526020819052604090205460ff161561063f5760405162461bcd60e51b815260206004820152601a60248201527f496e6865726974616e636520616c7265616479206578697374730000000000006044820152606401610540565b33600081815260208190526040808220805461ffff1916600190811782558082018490556002820181905560048201849055600682018490556007820184905560088201805460ff1916905560098201849055805480820182559084527fb10e2d527612073b26eecdfd717e6a320cf44b4afac2b0732d9fcbe2b7fa0cf60180546001600160a01b0319168517905590519092917fa887cc0c83620039f5804b762d01b310e2dedc32d3c9111412280cd541d5a77391a250565b6001818154811061070957600080fd5b6000918252602090912001546001600160a01b0316905081565b3360008181526020819052604090205460ff166107525760405162461bcd60e51b815260040161054090611717565b6001600160a01b0382166107a85760405162461bcd60e51b815260206004820152601960248201527f496e76616c69642076616c696461746f722061646472657373000000000000006044820152606401610540565b33600090815260208190526040902054610100900460ff16156107dd5760405162461bcd60e51b815260040161054090611758565b60005b3360009081526020819052604090206006015481101561088257336000908152602081815260408083208484526005019091529020546001600160a01b038085169116036108705760405162461bcd60e51b815260206004820152601860248201527f56616c696461746f7220616c72656164792065786973747300000000000000006044820152606401610540565b8061087a81611795565b9150506107e0565b5033600081815260208181526040808320600681018054835180850185526001600160a01b038a81168252818701888152838952600590950187529487209051815494511515600160a01b026001600160a81b031990951695169490941792909217909255938352908290528054916108fa83611795565b90915550503360009081526020819052604090206002810154600690910154101561093a5733600090815260208190526040902060068101546002909101555b6040516001600160a01b0384169033907f8064a302796c89446a96d63470b5b036212da26bd2debe5bec73e0170a9a5e8390600090a3505050565b6001600160a01b03821660009081526020819052604081206006015482106109cf5760405162461bcd60e51b815260206004820152600d60248201526c092dcecc2d8d2c840d2dcc8caf609b1b6044820152606401610540565b506001600160a01b038216600090815260208181526040808320848452600501909152902054600160a01b900460ff165b92915050565b3360009081526020819052604081205460ff16610a655760405162461bcd60e51b815260206004820152601b60248201527f4e6f2061637469766520696e6865726974616e636520666f756e6400000000006044820152606401610540565b504790565b3360008181526020819052604090205460ff16610a995760405162461bcd60e51b815260040161054090611717565b6001600160a01b038316610aef5760405162461bcd60e51b815260206004820152601b60248201527f496e76616c69642062656e6566696369617279206164647265737300000000006044820152606401610540565b60008211610b3f5760405162461bcd60e51b815260206004820152601d60248201527f416d6f756e74206d7573742062652067726561746572207468616e20300000006044820152606401610540565b813414610b9d5760405162461bcd60e51b815260206004820152602660248201527f4d7573742073656e6420657861637420616d6f756e7420666f722062656e656660448201526569636961727960d01b6064820152608401610540565b33600090815260208190526040902054610100900460ff1615610bd25760405162461bcd60e51b815260040161054090611758565b33600081815260208181526040808320600481018054835180850185526001600160a01b038b811682528187018b815283895260039095018752948720905181546001600160a01b0319169516949094178455915160019093019290925593835290829052805491610c4383611795565b90915550503360009081526020819052604081206009018054859290610c6a9084906117ae565b90915550506040518381526001600160a01b0385169033907f5d081d791b64899adab031015397ef8d7600501212ef97573b9e50f8c9bb6d9b9060200160405180910390a350505050565b3360009081526020819052604090205460ff16610d145760405162461bcd60e51b815260206004820152601b60248201527f4e6f2061637469766520696e6865726974616e636520666f756e6400000000006044820152606401610540565b33600090815260208190526040902054610100900460ff1615610d495760405162461bcd60e51b815260040161054090611758565b336000908152602081905260409020600901543414610db55760405162461bcd60e51b815260206004820152602260248201527f4d7573742073656e6420657861637420696e6865726974616e636520616d6f756044820152611b9d60f21b6064820152608401610540565b565b6001600160a01b038116600090815260208190526040902054819060ff16610df15760405162461bcd60e51b815260040161054090611717565b6001600160a01b038216600090815260208190526040902054610100900460ff1615610e5f5760405162461bcd60e51b815260206004820152601760248201527f446561746820616c726561647920636f6e6669726d65640000000000000000006044820152606401610540565b6001600160a01b038216600090815260208190526040902060040154610ec05760405162461bcd60e51b8152602060048201526016602482015275139bc818995b99599a58da585c9a595cc8185919195960521b6044820152606401610540565b600080805b6001600160a01b038516600090815260208190526040902060060154811015610f34576001600160a01b0385811660009081526020818152604080832085845260050190915290205433911603610f225780925060019150610f34565b80610f2c81611795565b915050610ec5565b5080610f745760405162461bcd60e51b815260206004820152600f60248201526e2737ba1030903b30b634b230ba37b960891b6044820152606401610540565b6001600160a01b038416600090815260208181526040808320858452600501909152902054600160a01b900460ff1615610fe45760405162461bcd60e51b8152602060048201526011602482015270105b1c9958591e4818dbdb999a5c9b5959607a1b6044820152606401610540565b6001600160a01b038416600081815260208181526040808320868452600581018352908320805460ff60a01b1916600160a01b17905592825281905260019190910180549161103283611795565b90915550506001600160a01b038416600081815260208181526040918290206001015491519182523392917f8af56bba0af6fb33e99284318ba113350ec3f9424b6263a8b01b6e00fb2651ea910160405180910390a36001600160a01b03841660009081526020819052604090206002810154600190910154106110de576001600160a01b0384166000908152602081905260409020805461ff0019166101001790556110de8461146e565b50505050565b6001600160a01b038216600090815260208190526040812060060154821061113e5760405162461bcd60e51b815260206004820152600d60248201526c092dcecc2d8d2c840d2dcc8caf609b1b6044820152606401610540565b506001600160a01b039182166000908152602081815260408083209383526005909301905220541690565b6001600160a01b03821660009081526020819052604081205460ff166111c95760405162461bcd60e51b8152602060048201526015602482015274125b9a195c9a5d185b98d9481b9bdd08199bdd5b99605a1b6044820152606401610540565b60005b6001600160a01b038416600090815260208190526040902060060154811015611238576001600160a01b03848116600090815260208181526040808320858452600501909152902054818516911603611226579050610a00565b8061123081611795565b9150506111cc565b5060405162461bcd60e51b815260206004820152601360248201527215985b1a59185d1bdc881b9bdd08199bdd5b99606a1b6044820152606401610540565b60606000805b6001548110156112e35760006001828154811061129c5761129c6117c1565b6000918252602090912001546001600160a01b031690506112bd81866113ca565b156112d057826112cc81611795565b9350505b50806112db81611795565b91505061127d565b5060008167ffffffffffffffff8111156112ff576112ff6117d7565b604051908082528060200260200182016040528015611328578160200160208202803683370190505b5090506000805b6001548110156113c05760006001828154811061134e5761134e6117c1565b6000918252602090912001546001600160a01b0316905061136f81886113ca565b156113ad5780848481518110611387576113876117c1565b6001600160a01b0390921660209283029190910190910152826113a981611795565b9350505b50806113b881611795565b91505061132f565b5090949350505050565b6001600160a01b03821660009081526020819052604081205460ff166113f257506000610a00565b60005b6001600160a01b038416600090815260208190526040902060060154811015611464576001600160a01b03848116600090815260208181526040808320858452600501909152902054818516911603611452576001915050610a00565b8061145c81611795565b9150506113f5565b5060009392505050565b6001600160a01b03811660009081526020819052604090206008015460ff16156114d05760405162461bcd60e51b8152602060048201526013602482015272105b1c9958591e48191a5cdd1c9a589d5d1959606a1b6044820152606401610540565b60005b6001600160a01b0382166000908152602081905260409020600401548110156115c6576001600160a01b0382811660009081526020818152604080832085845260030190915280822080546001909101549151931692909190839083908381818185875af1925050503d8060008114611568576040519150601f19603f3d011682016040523d82523d6000602084013e61156d565b606091505b50509050806115b05760405162461bcd60e51b815260206004820152600f60248201526e151c985b9cd9995c8819985a5b1959608a1b6044820152606401610540565b50505080806115be90611795565b9150506114d3565b506001600160a01b038116600081815260208190526040808220600801805460ff19166001179055517fe22111dd7904e8aca32090f5631e0ca476ced5e3081ccb9528640ae57f46880d9190a250565b80356001600160a01b038116811461162d57600080fd5b919050565b6000806040838503121561164557600080fd5b61164e83611616565b946020939093013593505050565b60006020828403121561166e57600080fd5b5035919050565b60006020828403121561168757600080fd5b61169082611616565b9392505050565b600080604083850312156116aa57600080fd5b6116b383611616565b91506116c160208401611616565b90509250929050565b6020808252825182820181905260009190848201906040850190845b8181101561170b5783516001600160a01b0316835292840192918401916001016116e6565b50909695505050505050565b60208082526021908201527f496e6865726974616e6365206e6f7420666f756e64206f7220696e61637469766040820152606560f81b606082015260800190565b6020808252600d908201526c13dddb995c881a5cc819195859609a1b604082015260600190565b634e487b7160e01b600052601160045260246000fd5b6000600182016117a7576117a761177f565b5060010190565b80820180821115610a0057610a0061177f565b634e487b7160e01b600052603260045260246000fd5b634e487b7160e01b600052604160045260246000fdfea264697066735822122087d9bf8173917f5e1056900362e593428b6cf2c41cd18e9a85a8cf70507c702b64736f6c63430008130033",
  "linkReferences": {},
  "deployedLinkReferences": {}
}