{
  "_format": "hh-sol-artifact-1",
  "contractName": "InheritanceManager",
  "sourceName": "contracts/InheritanceManager.sol",
  "abi": [
    {
      "anonymous": false,
      "inputs": [
        {
          "indexed": true,
          "internalType": "address",
          "name": "owner",
          "type": "address"
        },
        {
          "indexed": true,
          "internalType": "address",
          "name": "beneficiary",
          "type": "address"
        },
        {
          "indexed": false,
          "internalType": "uint256",
          "name": "share",
          "type": "uint256"
        }
      ],
      "name": "BeneficiaryAdded",
      "type": "event"
    },
    {
      "anonymous": false,
      "inputs": [
        {
          "indexed": true,
          "internalType": "address",
          "name": "owner",
          "type": "address"
        },
        {
          "indexed": true,
          "internalType": "address",
          "name": "validator",
          "type": "address"
        }
      ],
      "name": "DeathConfirmed",
      "type": "event"
    },
    {
      "anonymous": false,
      "inputs": [
        {
          "indexed": true,
          "internalType": "address",
          "name": "owner",
          "type": "address"
        }
      ],
      "name": "InheritanceCancelled",
      "type": "event"
    },
    {
      "anonymous": false,
      "inputs": [
        {
          "indexed": true,
          "internalType": "address",
          "name": "owner",
          "type": "address"
        },
        {
          "indexed": false,
          "internalType": "uint256",
          "name": "requiredConfirmations",
          "type": "uint256"
        }
      ],
      "name": "InheritanceCreated",
      "type": "event"
    },
    {
      "anonymous": false,
      "inputs": [
        {
          "indexed": true,
          "internalType": "address",
          "name": "owner",
          "type": "address"
        }
      ],
      "name": "InheritanceDistributed",
      "type": "event"
    },
    {
      "anonymous": false,
      "inputs": [
        {
          "indexed": true,
          "internalType": "address",
          "name": "owner",
          "type": "address"
        },
        {
          "indexed": false,
          "internalType": "uint256",
          "name": "currentValidators",
          "type": "uint256"
        },
        {
          "indexed": false,
          "internalType": "uint256",
          "name": "requiredConfirmations",
          "type": "uint256"
        }
      ],
      "name": "InsufficientValidators",
      "type": "event"
    },
    {
      "anonymous": false,
      "inputs": [
        {
          "indexed": true,
          "internalType": "address",
          "name": "previousOwner",
          "type": "address"
        },
        {
          "indexed": true,
          "internalType": "address",
          "name": "newOwner",
          "type": "address"
        }
      ],
      "name": "OwnershipTransferred",
      "type": "event"
    },
    {
      "anonymous": false,
      "inputs": [
        {
          "indexed": true,
          "internalType": "address",
          "name": "owner",
          "type": "address"
        },
        {
          "indexed": false,
          "internalType": "uint256",
          "name": "newRequiredConfirmations",
          "type": "uint256"
        }
      ],
      "name": "RequiredConfirmationsUpdated",
      "type": "event"
    },
    {
      "anonymous": false,
      "inputs": [
        {
          "indexed": true,
          "internalType": "address",
          "name": "owner",
          "type": "address"
        },
        {
          "indexed": true,
          "internalType": "address",
          "name": "validator",
          "type": "address"
        }
      ],
      "name": "ValidatorAdded",
      "type": "event"
    },
    {
      "inputs": [
        {
          "internalType": "address",
          "name": "_beneficiary",
          "type": "address"
        },
        {
          "internalType": "uint256",
          "name": "_share",
          "type": "uint256"
        }
      ],
      "name": "addBeneficiary",
      "outputs": [],
      "stateMutability": "nonpayable",
      "type": "function"
    },
    {
      "inputs": [
        {
          "internalType": "address",
          "name": "_validator",
          "type": "address"
        }
      ],
      "name": "addValidator",
      "outputs": [],
      "stateMutability": "nonpayable",
      "type": "function"
    },
    {
      "inputs": [],
      "name": "cancelInheritance",
      "outputs": [],
      "stateMutability": "nonpayable",
      "type": "function"
    },
    {
      "inputs": [
        {
          "internalType": "address",
          "name": "_owner",
          "type": "address"
        }
      ],
      "name": "confirmDeath",
      "outputs": [],
      "stateMutability": "nonpayable",
      "type": "function"
    },
    {
      "inputs": [],
      "name": "createInheritance",
      "outputs": [],
      "stateMutability": "nonpayable",
      "type": "function"
    },
    {
      "inputs": [
        {
          "internalType": "address",
          "name": "owner",
          "type": "address"
        },
        {
          "internalType": "uint256",
          "name": "index",
          "type": "uint256"
        }
      ],
      "name": "getBeneficiary",
      "outputs": [
        {
          "internalType": "address",
          "name": "wallet",
          "type": "address"
        },
        {
          "internalType": "uint256",
          "name": "share",
          "type": "uint256"
        }
      ],
      "stateMutability": "view",
      "type": "function"
    },
    {
      "inputs": [
        {
          "internalType": "address",
          "name": "owner",
          "type": "address"
        }
      ],
      "name": "getBeneficiaryCount",
      "outputs": [
        {
          "internalType": "uint256",
          "name": "",
          "type": "uint256"
        }
      ],
      "stateMutability": "view",
      "type": "function"
    },
    {
      "inputs": [
        {
          "internalType": "address",
          "name": "owner",
          "type": "address"
        },
        {
          "internalType": "uint256",
          "name": "index",
          "type": "uint256"
        }
      ],
      "name": "getValidator",
      "outputs": [
        {
          "internalType": "address",
          "name": "",
          "type": "address"
        }
      ],
      "stateMutability": "view",
      "type": "function"
    },
    {
      "inputs": [
        {
          "internalType": "address",
          "name": "owner",
          "type": "address"
        },
        {
          "internalType": "uint256",
          "name": "index",
          "type": "uint256"
        }
      ],
      "name": "getValidatorConfirmation",
      "outputs": [
        {
          "internalType": "bool",
          "name": "",
          "type": "bool"
        }
      ],
      "stateMutability": "view",
      "type": "function"
    },
    {
      "inputs": [
        {
          "internalType": "address",
          "name": "owner",
          "type": "address"
        }
      ],
      "name": "getValidatorCount",
      "outputs": [
        {
          "internalType": "uint256",
          "name": "",
          "type": "uint256"
        }
      ],
      "stateMutability": "view",
      "type": "function"
    },
    {
      "inputs": [
        {
          "internalType": "address",
          "name": "",
          "type": "address"
        }
      ],
      "name": "inheritances",
      "outputs": [
        {
          "internalType": "address",
          "name": "owner",
          "type": "address"
        },
        {
          "internalType": "uint256",
          "name": "requiredConfirmations",
          "type": "uint256"
        },
        {
          "internalType": "bool",
          "name": "isActive",
          "type": "bool"
        },
        {
          "internalType": "bool",
          "name": "isDead",
          "type": "bool"
        },
        {
          "internalType": "uint256",
          "name": "confirmationCount",
          "type": "uint256"
        }
      ],
      "stateMutability": "view",
      "type": "function"
    },
    {
      "inputs": [],
      "name": "owner",
      "outputs": [
        {
          "internalType": "address",
          "name": "",
          "type": "address"
        }
      ],
      "stateMutability": "view",
      "type": "function"
    },
    {
      "inputs": [],
      "name": "renounceOwnership",
      "outputs": [],
      "stateMutability": "nonpayable",
      "type": "function"
    },
    {
      "inputs": [
        {
          "internalType": "address",
          "name": "newOwner",
          "type": "address"
        }
      ],
      "name": "transferOwnership",
      "outputs": [],
      "stateMutability": "nonpayable",
      "type": "function"
    },
    {
      "inputs": [
        {
          "internalType": "uint256",
          "name": "_newRequiredConfirmations",
          "type": "uint256"
        }
      ],
      "name": "updateRequiredConfirmations",
      "outputs": [],
      "stateMutability": "nonpayable",
      "type": "function"
    },
    {
      "stateMutability": "payable",
      "type": "receive"
    }
  ],
  "bytecode": "0x60806040523480156200001157600080fd5b5060016000819055506200003a6200002e6200004060201b60201c565b6200004860201b60201c565b6200010e565b600033905090565b6000600160009054906101000a900473ffffffffffffffffffffffffffffffffffffffff16905081600160006101000a81548173ffffffffffffffffffffffffffffffffffffffff021916908373ffffffffffffffffffffffffffffffffffffffff1602179055508173ffffffffffffffffffffffffffffffffffffffff168173ffffffffffffffffffffffffffffffffffffffff167f8be0079c531659141344cd1fd0a4f28419497f9722a3daafe3b4186f6b6457e060405160405180910390a35050565b61324d806200011e6000396000f3fe6080604052600436106100ec5760003560e01c806381b2db501161008a578063aab7c6d711610059578063aab7c6d7146102dc578063ad81907a14610305578063f2fde38b14610342578063f9560e451461036b576100f3565b806381b2db50146102485780638da5cb5b1461027157806396074e701461029c578063aa14cc6b146102c5576100f3565b80634d238c8e116100c65780634d238c8e1461018a5780636122fed5146101b3578063715018a6146101f457806378bfecaf1461020b576100f3565b80630a6cef46146100f857806315889d99146101365780632423c7f31461014d576100f3565b366100f357005b600080fd5b34801561010457600080fd5b5061011f600480360381019061011a9190612655565b6103a8565b60405161012d929190612ca9565b60405180910390f35b34801561014257600080fd5b5061014b61055a565b005b34801561015957600080fd5b50610174600480360381019061016f919061262c565b610710565b6040516101819190612fdb565b60405180910390f35b34801561019657600080fd5b506101b160048036038101906101ac919061262c565b61075f565b005b3480156101bf57600080fd5b506101da60048036038101906101d5919061262c565b610cf0565b6040516101eb959493929190612cd2565b60405180910390f35b34801561020057600080fd5b50610209610d60565b005b34801561021757600080fd5b50610232600480360381019061022d9190612655565b610d74565b60405161023f9190612d25565b60405180910390f35b34801561025457600080fd5b5061026f600480360381019061026a9190612691565b610e9a565b005b34801561027d57600080fd5b5061028661108c565b6040516102939190612c8e565b60405180910390f35b3480156102a857600080fd5b506102c360048036038101906102be9190612655565b6110b6565b005b3480156102d157600080fd5b506102da611403565b005b3480156102e857600080fd5b5061030360048036038101906102fe919061262c565b6116f8565b005b34801561031157600080fd5b5061032c60048036038101906103279190612655565b611e1e565b6040516103399190612c8e565b60405180910390f35b34801561034e57600080fd5b506103696004803603810190610364919061262c565b611f57565b005b34801561037757600080fd5b50610392600480360381019061038d919061262c565b611fdb565b60405161039f9190612fdb565b60405180910390f35b600080600260008573ffffffffffffffffffffffffffffffffffffffff1673ffffffffffffffffffffffffffffffffffffffff168152602001908152602001600020600101805490508310610432576040517f08c379a000000000000000000000000000000000000000000000000000000000815260040161042990612ddb565b60405180910390fd5b6000600260008673ffffffffffffffffffffffffffffffffffffffff1673ffffffffffffffffffffffffffffffffffffffff16815260200190815260200160002060010184815481106104ae577f4e487b7100000000000000000000000000000000000000000000000000000000600052603260045260246000fd5b90600052602060002090600302016040518060600160405290816000820160009054906101000a900473ffffffffffffffffffffffffffffffffffffffff1673ffffffffffffffffffffffffffffffffffffffff1673ffffffffffffffffffffffffffffffffffffffff168152602001600182015481526020016002820160009054906101000a900460ff16151515158152505090508060000151816020015192509250509250929050565b600260003373ffffffffffffffffffffffffffffffffffffffff1673ffffffffffffffffffffffffffffffffffffffff16815260200190815260200160002060040160009054906101000a900460ff16156105ea576040517f08c379a00000000000000000000000000000000000000000000000000000000081526004016105e190612e9b565b60405180910390fd5b6000600260003373ffffffffffffffffffffffffffffffffffffffff1673ffffffffffffffffffffffffffffffffffffffff1681526020019081526020016000209050338160000160006101000a81548173ffffffffffffffffffffffffffffffffffffffff021916908373ffffffffffffffffffffffffffffffffffffffff16021790555060018160040160006101000a81548160ff02191690831515021790555060008160040160016101000a81548160ff02191690831515021790555060008160030181905550600081600501819055503373ffffffffffffffffffffffffffffffffffffffff167f7a8ab2e0cd728b35a8aca0bea965ba00838bd008caef4f09081b77676f82f7aa60006040516107059190612d40565b60405180910390a250565b6000600260008373ffffffffffffffffffffffffffffffffffffffff1673ffffffffffffffffffffffffffffffffffffffff168152602001908152602001600020600101805490509050919050565b600260003373ffffffffffffffffffffffffffffffffffffffff1673ffffffffffffffffffffffffffffffffffffffff16815260200190815260200160002060040160009054906101000a900460ff166107ee576040517f08c379a00000000000000000000000000000000000000000000000000000000081526004016107e590612e5b565b60405180910390fd5b600073ffffffffffffffffffffffffffffffffffffffff168173ffffffffffffffffffffffffffffffffffffffff16141561085e576040517f08c379a000000000000000000000000000000000000000000000000000000000815260040161085590612dbb565b60405180910390fd5b3373ffffffffffffffffffffffffffffffffffffffff168173ffffffffffffffffffffffffffffffffffffffff1614156108cd576040517f08c379a00000000000000000000000000000000000000000000000000000000081526004016108c490612d7b565b60405180910390fd5b60005b600260003373ffffffffffffffffffffffffffffffffffffffff1673ffffffffffffffffffffffffffffffffffffffff16815260200190815260200160002060020180549050811015610a46578173ffffffffffffffffffffffffffffffffffffffff16600260003373ffffffffffffffffffffffffffffffffffffffff1673ffffffffffffffffffffffffffffffffffffffff16815260200190815260200160002060020182815481106109ae577f4e487b7100000000000000000000000000000000000000000000000000000000600052603260045260246000fd5b9060005260206000200160000160009054906101000a900473ffffffffffffffffffffffffffffffffffffffff1673ffffffffffffffffffffffffffffffffffffffff161415610a33576040517f08c379a0000000000000000000000000000000000000000000000000000000008152600401610a2a90612f9b565b60405180910390fd5b8080610a3e90613142565b9150506108d0565b50600060405180606001604052808373ffffffffffffffffffffffffffffffffffffffff168152602001600015158152602001600115158152509050600260003373ffffffffffffffffffffffffffffffffffffffff1673ffffffffffffffffffffffffffffffffffffffff168152602001908152602001600020600201819080600181540180825580915050600190039060005260206000200160009091909190915060008201518160000160006101000a81548173ffffffffffffffffffffffffffffffffffffffff021916908373ffffffffffffffffffffffffffffffffffffffff16021790555060208201518160000160146101000a81548160ff02191690831515021790555060408201518160000160156101000a81548160ff0219169083151502179055505050600260003373ffffffffffffffffffffffffffffffffffffffff1673ffffffffffffffffffffffffffffffffffffffff16815260200190815260200160002060020180549050600260003373ffffffffffffffffffffffffffffffffffffffff1673ffffffffffffffffffffffffffffffffffffffff168152602001908152602001600020600301819055508173ffffffffffffffffffffffffffffffffffffffff163373ffffffffffffffffffffffffffffffffffffffff167f8064a302796c89446a96d63470b5b036212da26bd2debe5bec73e0170a9a5e8360405160405180910390a33373ffffffffffffffffffffffffffffffffffffffff167f11d7679726c1b8a182b430afa615a42443840f83ffddcc85c29aae0e2c897d83600260003373ffffffffffffffffffffffffffffffffffffffff1673ffffffffffffffffffffffffffffffffffffffff16815260200190815260200160002060020180549050604051610ce49190612fdb565b60405180910390a25050565b60026020528060005260406000206000915090508060000160009054906101000a900473ffffffffffffffffffffffffffffffffffffffff16908060030154908060040160009054906101000a900460ff16908060040160019054906101000a900460ff16908060050154905085565b610d6861202a565b610d7260006120a8565b565b6000600260008473ffffffffffffffffffffffffffffffffffffffff1673ffffffffffffffffffffffffffffffffffffffff168152602001908152602001600020600201805490508210610dfd576040517f08c379a0000000000000000000000000000000000000000000000000000000008152600401610df490612ddb565b60405180910390fd5b600260008473ffffffffffffffffffffffffffffffffffffffff1673ffffffffffffffffffffffffffffffffffffffff1681526020019081526020016000206002018281548110610e77577f4e487b7100000000000000000000000000000000000000000000000000000000600052603260045260246000fd5b9060005260206000200160000160149054906101000a900460ff16905092915050565b600260003373ffffffffffffffffffffffffffffffffffffffff1673ffffffffffffffffffffffffffffffffffffffff16815260200190815260200160002060040160009054906101000a900460ff16610f29576040517f08c379a0000000000000000000000000000000000000000000000000000000008152600401610f2090612e5b565b60405180910390fd5b60008111610f6c576040517f08c379a0000000000000000000000000000000000000000000000000000000008152600401610f6390612efb565b60405180910390fd5b600260003373ffffffffffffffffffffffffffffffffffffffff1673ffffffffffffffffffffffffffffffffffffffff16815260200190815260200160002060020180549050811115610ff4576040517f08c379a0000000000000000000000000000000000000000000000000000000008152600401610feb90612dfb565b60405180910390fd5b80600260003373ffffffffffffffffffffffffffffffffffffffff1673ffffffffffffffffffffffffffffffffffffffff168152602001908152602001600020600301819055503373ffffffffffffffffffffffffffffffffffffffff167f11d7679726c1b8a182b430afa615a42443840f83ffddcc85c29aae0e2c897d83826040516110819190612fdb565b60405180910390a250565b6000600160009054906101000a900473ffffffffffffffffffffffffffffffffffffffff16905090565b600260003373ffffffffffffffffffffffffffffffffffffffff1673ffffffffffffffffffffffffffffffffffffffff16815260200190815260200160002060040160009054906101000a900460ff16611145576040517f08c379a000000000000000000000000000000000000000000000000000000000815260040161113c90612e5b565b60405180910390fd5b600260003373ffffffffffffffffffffffffffffffffffffffff1673ffffffffffffffffffffffffffffffffffffffff16815260200190815260200160002060040160019054906101000a900460ff16156111d5576040517f08c379a00000000000000000000000000000000000000000000000000000000081526004016111cc90612f1b565b60405180910390fd5b600073ffffffffffffffffffffffffffffffffffffffff168273ffffffffffffffffffffffffffffffffffffffff161415611245576040517f08c379a000000000000000000000000000000000000000000000000000000000815260040161123c90612d5b565b60405180910390fd5b60008111611288576040517f08c379a000000000000000000000000000000000000000000000000000000000815260040161127f90612e1b565b60405180910390fd5b600260003373ffffffffffffffffffffffffffffffffffffffff1673ffffffffffffffffffffffffffffffffffffffff16815260200190815260200160002060010160405180606001604052808473ffffffffffffffffffffffffffffffffffffffff16815260200183815260200160011515815250908060018154018082558091505060019003906000526020600020906003020160009091909190915060008201518160000160006101000a81548173ffffffffffffffffffffffffffffffffffffffff021916908373ffffffffffffffffffffffffffffffffffffffff1602179055506020820151816001015560408201518160020160006101000a81548160ff02191690831515021790555050508173ffffffffffffffffffffffffffffffffffffffff163373ffffffffffffffffffffffffffffffffffffffff167f5d081d791b64899adab031015397ef8d7600501212ef97573b9e50f8c9bb6d9b836040516113f79190612fdb565b60405180910390a35050565b600260003373ffffffffffffffffffffffffffffffffffffffff1673ffffffffffffffffffffffffffffffffffffffff16815260200190815260200160002060040160009054906101000a900460ff16611492576040517f08c379a000000000000000000000000000000000000000000000000000000000815260040161148990612f3b565b60405180910390fd5b3373ffffffffffffffffffffffffffffffffffffffff16600260003373ffffffffffffffffffffffffffffffffffffffff1673ffffffffffffffffffffffffffffffffffffffff16815260200190815260200160002060000160009054906101000a900473ffffffffffffffffffffffffffffffffffffffff1673ffffffffffffffffffffffffffffffffffffffff1614611562576040517f08c379a000000000000000000000000000000000000000000000000000000000815260040161155990612f5b565b60405180910390fd5b600260003373ffffffffffffffffffffffffffffffffffffffff1673ffffffffffffffffffffffffffffffffffffffff16815260200190815260200160002060040160019054906101000a900460ff16156115f2576040517f08c379a00000000000000000000000000000000000000000000000000000000081526004016115e990612e3b565b60405180910390fd5b600260003373ffffffffffffffffffffffffffffffffffffffff1673ffffffffffffffffffffffffffffffffffffffff168152602001908152602001600020600080820160006101000a81549073ffffffffffffffffffffffffffffffffffffffff021916905560018201600061166991906124fd565b6002820160006116799190612521565b60038201600090556004820160006101000a81549060ff02191690556004820160016101000a81549060ff0219169055600582016000905550503373ffffffffffffffffffffffffffffffffffffffff167f577d80a92396a49283a298935287995fee74eceefc62c3edfdf8257ec854629660405160405180910390a2565b806000805b600260008473ffffffffffffffffffffffffffffffffffffffff1673ffffffffffffffffffffffffffffffffffffffff16815260200190815260200160002060020180549050811015611841573373ffffffffffffffffffffffffffffffffffffffff16600260008573ffffffffffffffffffffffffffffffffffffffff1673ffffffffffffffffffffffffffffffffffffffff16815260200190815260200160002060020182815481106117db577f4e487b7100000000000000000000000000000000000000000000000000000000600052603260045260246000fd5b9060005260206000200160000160009054906101000a900473ffffffffffffffffffffffffffffffffffffffff1673ffffffffffffffffffffffffffffffffffffffff16141561182e5760019150611841565b808061183990613142565b9150506116fd565b5080611882576040517f08c379a000000000000000000000000000000000000000000000000000000000815260040161187990612e7b565b60405180910390fd5b61188a61216e565b600260008473ffffffffffffffffffffffffffffffffffffffff1673ffffffffffffffffffffffffffffffffffffffff16815260200190815260200160002060040160009054906101000a900460ff16611919576040517f08c379a000000000000000000000000000000000000000000000000000000000815260040161191090612e5b565b60405180910390fd5b600260008473ffffffffffffffffffffffffffffffffffffffff1673ffffffffffffffffffffffffffffffffffffffff16815260200190815260200160002060040160019054906101000a900460ff16156119a9576040517f08c379a00000000000000000000000000000000000000000000000000000000081526004016119a090612edb565b60405180910390fd5b6000805b600260008673ffffffffffffffffffffffffffffffffffffffff1673ffffffffffffffffffffffffffffffffffffffff16815260200190815260200160002060020180549050811015611d07573373ffffffffffffffffffffffffffffffffffffffff16600260008773ffffffffffffffffffffffffffffffffffffffff1673ffffffffffffffffffffffffffffffffffffffff1681526020019081526020016000206002018281548110611a8b577f4e487b7100000000000000000000000000000000000000000000000000000000600052603260045260246000fd5b9060005260206000200160000160009054906101000a900473ffffffffffffffffffffffffffffffffffffffff1673ffffffffffffffffffffffffffffffffffffffff161415611c4b57600260008673ffffffffffffffffffffffffffffffffffffffff1673ffffffffffffffffffffffffffffffffffffffff1681526020019081526020016000206002018181548110611b4f577f4e487b7100000000000000000000000000000000000000000000000000000000600052603260045260246000fd5b9060005260206000200160000160149054906101000a900460ff1615611baa576040517f08c379a0000000000000000000000000000000000000000000000000000000008152600401611ba190612fbb565b60405180910390fd5b6001600260008773ffffffffffffffffffffffffffffffffffffffff1673ffffffffffffffffffffffffffffffffffffffff1681526020019081526020016000206002018281548110611c26577f4e487b7100000000000000000000000000000000000000000000000000000000600052603260045260246000fd5b9060005260206000200160000160146101000a81548160ff0219169083151502179055505b600260008673ffffffffffffffffffffffffffffffffffffffff1673ffffffffffffffffffffffffffffffffffffffff1681526020019081526020016000206002018181548110611cc5577f4e487b7100000000000000000000000000000000000000000000000000000000600052603260045260246000fd5b9060005260206000200160000160149054906101000a900460ff1615611cf4578180611cf090613142565b9250505b8080611cff90613142565b9150506119ad565b50600260008573ffffffffffffffffffffffffffffffffffffffff1673ffffffffffffffffffffffffffffffffffffffff168152602001908152602001600020600301548110611db6576001600260008673ffffffffffffffffffffffffffffffffffffffff1673ffffffffffffffffffffffffffffffffffffffff16815260200190815260200160002060040160016101000a81548160ff021916908315150217905550611db5846121be565b5b3373ffffffffffffffffffffffffffffffffffffffff168473ffffffffffffffffffffffffffffffffffffffff167fe7cc7707267442e0cb2e8d161ddcb534eeb6a607bfcc576d74dacdf5bf84f39460405160405180910390a350611e196124eb565b505050565b6000600260008473ffffffffffffffffffffffffffffffffffffffff1673ffffffffffffffffffffffffffffffffffffffff168152602001908152602001600020600201805490508210611ea7576040517f08c379a0000000000000000000000000000000000000000000000000000000008152600401611e9e90612ddb565b60405180910390fd5b600260008473ffffffffffffffffffffffffffffffffffffffff1673ffffffffffffffffffffffffffffffffffffffff1681526020019081526020016000206002018281548110611f21577f4e487b7100000000000000000000000000000000000000000000000000000000600052603260045260246000fd5b9060005260206000200160000160009054906101000a900473ffffffffffffffffffffffffffffffffffffffff16905092915050565b611f5f61202a565b600073ffffffffffffffffffffffffffffffffffffffff168173ffffffffffffffffffffffffffffffffffffffff161415611fcf576040517f08c379a0000000000000000000000000000000000000000000000000000000008152600401611fc690612d9b565b60405180910390fd5b611fd8816120a8565b50565b6000600260008373ffffffffffffffffffffffffffffffffffffffff1673ffffffffffffffffffffffffffffffffffffffff168152602001908152602001600020600201805490509050919050565b6120326124f5565b73ffffffffffffffffffffffffffffffffffffffff1661205061108c565b73ffffffffffffffffffffffffffffffffffffffff16146120a6576040517f08c379a000000000000000000000000000000000000000000000000000000000815260040161209d90612ebb565b60405180910390fd5b565b6000600160009054906101000a900473ffffffffffffffffffffffffffffffffffffffff16905081600160006101000a81548173ffffffffffffffffffffffffffffffffffffffff021916908373ffffffffffffffffffffffffffffffffffffffff1602179055508173ffffffffffffffffffffffffffffffffffffffff168173ffffffffffffffffffffffffffffffffffffffff167f8be0079c531659141344cd1fd0a4f28419497f9722a3daafe3b4186f6b6457e060405160405180910390a35050565b600260005414156121b4576040517f08c379a00000000000000000000000000000000000000000000000000000000081526004016121ab90612f7b565b60405180910390fd5b6002600081905550565b60004790506000805b600260008573ffffffffffffffffffffffffffffffffffffffff1673ffffffffffffffffffffffffffffffffffffffff168152602001908152602001600020600101805490508110156122c057600260008573ffffffffffffffffffffffffffffffffffffffff1673ffffffffffffffffffffffffffffffffffffffff168152602001908152602001600020600101818154811061228e577f4e487b7100000000000000000000000000000000000000000000000000000000600052603260045260246000fd5b906000526020600020906003020160010154826122ab9190613007565b915080806122b890613142565b9150506121c7565b5060005b600260008573ffffffffffffffffffffffffffffffffffffffff1673ffffffffffffffffffffffffffffffffffffffff168152602001908152602001600020600101805490508110156124a2576000600260008673ffffffffffffffffffffffffffffffffffffffff1673ffffffffffffffffffffffffffffffffffffffff168152602001908152602001600020600101828154811061238d577f4e487b7100000000000000000000000000000000000000000000000000000000600052603260045260246000fd5b90600052602060002090600302016040518060600160405290816000820160009054906101000a900473ffffffffffffffffffffffffffffffffffffffff1673ffffffffffffffffffffffffffffffffffffffff1673ffffffffffffffffffffffffffffffffffffffff168152602001600182015481526020016002820160009054906101000a900460ff1615151515815250509050600083826020015186612436919061308e565b612440919061305d565b9050816000015173ffffffffffffffffffffffffffffffffffffffff166108fc829081150290604051600060405180830381858888f1935050505015801561248c573d6000803e3d6000fd5b505050808061249a90613142565b9150506122c4565b508273ffffffffffffffffffffffffffffffffffffffff167fe22111dd7904e8aca32090f5631e0ca476ced5e3081ccb9528640ae57f46880d60405160405180910390a2505050565b6001600081905550565b600033905090565b508054600082556003029060005260206000209081019061251e9190612542565b50565b508054600082559060005260206000209081019061253f919061259c565b50565b5b8082111561259857600080820160006101000a81549073ffffffffffffffffffffffffffffffffffffffff021916905560018201600090556002820160006101000a81549060ff021916905550600301612543565b5090565b5b808211156125fe57600080820160006101000a81549073ffffffffffffffffffffffffffffffffffffffff02191690556000820160146101000a81549060ff02191690556000820160156101000a81549060ff02191690555060010161259d565b5090565b600081359050612611816131e9565b92915050565b60008135905061262681613200565b92915050565b60006020828403121561263e57600080fd5b600061264c84828501612602565b91505092915050565b6000806040838503121561266857600080fd5b600061267685828601612602565b925050602061268785828601612617565b9150509250929050565b6000602082840312156126a357600080fd5b60006126b184828501612617565b91505092915050565b6126c3816130e8565b82525050565b6126d2816130fa565b82525050565b6126e181613130565b82525050565b60006126f4601b83612ff6565b91507f496e76616c69642062656e6566696369617279206164647265737300000000006000830152602082019050919050565b6000612734601983612ff6565b91507f4f776e65722063616e6e6f742062652076616c696461746f72000000000000006000830152602082019050919050565b6000612774602683612ff6565b91507f4f776e61626c653a206e6577206f776e657220697320746865207a65726f206160008301527f64647265737300000000000000000000000000000000000000000000000000006020830152604082019050919050565b60006127da601983612ff6565b91507f496e76616c69642076616c696461746f722061646472657373000000000000006000830152602082019050919050565b600061281a600d83612ff6565b91507f496e76616c696420696e646578000000000000000000000000000000000000006000830152602082019050919050565b600061285a603483612ff6565b91507f526571756972656420636f6e6669726d6174696f6e732063616e6e6f7420657860008301527f636565642076616c696461746f7220636f756e740000000000000000000000006020830152604082019050919050565b60006128c0601c83612ff6565b91507f5368617265206d7573742062652067726561746572207468616e2030000000006000830152602082019050919050565b6000612900602683612ff6565b91507f43616e6e6f742063616e63656c20616674657220646561746820636f6e66697260008301527f6d6174696f6e00000000000000000000000000000000000000000000000000006020830152604082019050919050565b6000612966601783612ff6565b91507f496e6865726974616e6365206e6f7420637265617465640000000000000000006000830152602082019050919050565b60006129a6601983612ff6565b91507f43616c6c6572206973206e6f7420612076616c696461746f72000000000000006000830152602082019050919050565b60006129e6601a83612ff6565b91507f496e6865726974616e636520616c7265616479206578697374730000000000006000830152602082019050919050565b6000612a26602083612ff6565b91507f4f776e61626c653a2063616c6c6572206973206e6f7420746865206f776e65726000830152602082019050919050565b6000612a66601783612ff6565b91507f446561746820616c726561647920636f6e6669726d65640000000000000000006000830152602082019050919050565b6000612aa6602d83612ff6565b91507f526571756972656420636f6e6669726d6174696f6e73206d757374206265206760008301527f726561746572207468616e2030000000000000000000000000000000000000006020830152604082019050919050565b6000612b0c601683612ff6565b91507f4f776e6572206973206465636c617265642064656164000000000000000000006000830152602082019050919050565b6000612b4c601583612ff6565b91507f496e6865726974616e6365206e6f7420666f756e6400000000000000000000006000830152602082019050919050565b6000612b8c601583612ff6565b91507f4e6f7420696e6865726974616e6365206f776e657200000000000000000000006000830152602082019050919050565b6000612bcc601f83612ff6565b91507f5265656e7472616e637947756172643a207265656e7472616e742063616c6c006000830152602082019050919050565b6000612c0c601883612ff6565b91507f56616c696461746f7220616c72656164792065786973747300000000000000006000830152602082019050919050565b6000612c4c601183612ff6565b91507f416c726561647920636f6e6669726d65640000000000000000000000000000006000830152602082019050919050565b612c8881613126565b82525050565b6000602082019050612ca360008301846126ba565b92915050565b6000604082019050612cbe60008301856126ba565b612ccb6020830184612c7f565b9392505050565b600060a082019050612ce760008301886126ba565b612cf46020830187612c7f565b612d0160408301866126c9565b612d0e60608301856126c9565b612d1b6080830184612c7f565b9695505050505050565b6000602082019050612d3a60008301846126c9565b92915050565b6000602082019050612d5560008301846126d8565b92915050565b60006020820190508181036000830152612d74816126e7565b9050919050565b60006020820190508181036000830152612d9481612727565b9050919050565b60006020820190508181036000830152612db481612767565b9050919050565b60006020820190508181036000830152612dd4816127cd565b9050919050565b60006020820190508181036000830152612df48161280d565b9050919050565b60006020820190508181036000830152612e148161284d565b9050919050565b60006020820190508181036000830152612e34816128b3565b9050919050565b60006020820190508181036000830152612e54816128f3565b9050919050565b60006020820190508181036000830152612e7481612959565b9050919050565b60006020820190508181036000830152612e9481612999565b9050919050565b60006020820190508181036000830152612eb4816129d9565b9050919050565b60006020820190508181036000830152612ed481612a19565b9050919050565b60006020820190508181036000830152612ef481612a59565b9050919050565b60006020820190508181036000830152612f1481612a99565b9050919050565b60006020820190508181036000830152612f3481612aff565b9050919050565b60006020820190508181036000830152612f5481612b3f565b9050919050565b60006020820190508181036000830152612f7481612b7f565b9050919050565b60006020820190508181036000830152612f9481612bbf565b9050919050565b60006020820190508181036000830152612fb481612bff565b9050919050565b60006020820190508181036000830152612fd481612c3f565b9050919050565b6000602082019050612ff06000830184612c7f565b92915050565b600082825260208201905092915050565b600061301282613126565b915061301d83613126565b9250827fffffffffffffffffffffffffffffffffffffffffffffffffffffffffffffffff038211156130525761305161318b565b5b828201905092915050565b600061306882613126565b915061307383613126565b925082613083576130826131ba565b5b828204905092915050565b600061309982613126565b91506130a483613126565b9250817fffffffffffffffffffffffffffffffffffffffffffffffffffffffffffffffff04831182151516156130dd576130dc61318b565b5b828202905092915050565b60006130f382613106565b9050919050565b60008115159050919050565b600073ffffffffffffffffffffffffffffffffffffffff82169050919050565b6000819050919050565b600061313b82613126565b9050919050565b600061314d82613126565b91507fffffffffffffffffffffffffffffffffffffffffffffffffffffffffffffffff8214156131805761317f61318b565b5b600182019050919050565b7f4e487b7100000000000000000000000000000000000000000000000000000000600052601160045260246000fd5b7f4e487b7100000000000000000000000000000000000000000000000000000000600052601260045260246000fd5b6131f2816130e8565b81146131fd57600080fd5b50565b61320981613126565b811461321457600080fd5b5056fea2646970667358221220e7595d56a23d370f11a771c57f8e31c4b92a6737fc26c7c9f0423c88d845c16864736f6c63430008000033",
  "linkReferences": {},
  "deployedLinkReferences": {}
}