{
  "_format": "hh-sol-artifact-1",
  "contractName": "InheritanceManager",
  "sourceName": "contracts/InheritanceManager.sol",
  "abi": [
    {
      "anonymous": false,
      "inputs": [
        {
          "indexed": true,
          "internalType": "address",
          "name": "owner",
          "type": "address"
        },
        {
          "indexed": true,
          "internalType": "address",
          "name": "beneficiary",
          "type": "address"
        },
        {
          "indexed": false,
          "internalType": "uint256",
          "name": "amount",
          "type": "uint256"
        }
      ],
      "name": "BeneficiaryAdded",
      "type": "event"
    },
    {
      "anonymous": false,
      "inputs": [
        {
          "indexed": true,
          "internalType": "address",
          "name": "owner",
          "type": "address"
        },
        {
          "indexed": true,
          "internalType": "address",
          "name": "validator",
          "type": "address"
        },
        {
          "indexed": false,
          "internalType": "uint256",
          "name": "confirmationCount",
          "type": "uint256"
        }
      ],
      "name": "DeathConfirmed",
      "type": "event"
    },
    {
      "anonymous": false,
      "inputs": [
        {
          "indexed": true,
          "internalType": "address",
          "name": "owner",
          "type": "address"
        }
      ],
      "name": "InheritanceCancelled",
      "type": "event"
    },
    {
      "anonymous": false,
      "inputs": [
        {
          "indexed": true,
          "internalType": "address",
          "name": "owner",
          "type": "address"
        }
      ],
      "name": "InheritanceCreated",
      "type": "event"
    },
    {
      "anonymous": false,
      "inputs": [
        {
          "indexed": true,
          "internalType": "address",
          "name": "owner",
          "type": "address"
        }
      ],
      "name": "InheritanceDistributed",
      "type": "event"
    },
    {
      "anonymous": false,
      "inputs": [
        {
          "indexed": true,
          "internalType": "address",
          "name": "owner",
          "type": "address"
        },
        {
          "indexed": true,
          "internalType": "address",
          "name": "validator",
          "type": "address"
        }
      ],
      "name": "ValidatorAdded",
      "type": "event"
    },
    {
      "inputs": [
        {
          "internalType": "address",
          "name": "beneficiaryAddress",
          "type": "address"
        },
        {
          "internalType": "uint256",
          "name": "amount",
          "type": "uint256"
        }
      ],
      "name": "addBeneficiary",
      "outputs": [],
      "stateMutability": "payable",
      "type": "function"
    },
    {
      "inputs": [
        {
          "internalType": "address",
          "name": "validatorAddress",
          "type": "address"
        }
      ],
      "name": "addValidator",
      "outputs": [],
      "stateMutability": "nonpayable",
      "type": "function"
    },
    {
      "inputs": [
        {
          "internalType": "uint256",
          "name": "",
          "type": "uint256"
        }
      ],
      "name": "allInheritances",
      "outputs": [
        {
          "internalType": "address",
          "name": "",
          "type": "address"
        }
      ],
      "stateMutability": "view",
      "type": "function"
    },
    {
      "inputs": [],
      "name": "cancelInheritance",
      "outputs": [],
      "stateMutability": "nonpayable",
      "type": "function"
    },
    {
      "inputs": [
        {
          "internalType": "address",
          "name": "owner",
          "type": "address"
        }
      ],
      "name": "confirmDeath",
      "outputs": [],
      "stateMutability": "nonpayable",
      "type": "function"
    },
    {
      "inputs": [],
      "name": "createInheritance",
      "outputs": [],
      "stateMutability": "nonpayable",
      "type": "function"
    },
    {
      "inputs": [
        {
          "internalType": "address",
          "name": "owner",
          "type": "address"
        },
        {
          "internalType": "uint256",
          "name": "index",
          "type": "uint256"
        }
      ],
      "name": "getBeneficiary",
      "outputs": [
        {
          "internalType": "address",
          "name": "wallet",
          "type": "address"
        },
        {
          "internalType": "uint256",
          "name": "amount",
          "type": "uint256"
        }
      ],
      "stateMutability": "view",
      "type": "function"
    },
    {
      "inputs": [
        {
          "internalType": "address",
          "name": "owner",
          "type": "address"
        }
      ],
      "name": "getBeneficiaryCount",
      "outputs": [
        {
          "internalType": "uint256",
          "name": "",
          "type": "uint256"
        }
      ],
      "stateMutability": "view",
      "type": "function"
    },
    {
      "inputs": [],
      "name": "getInheritanceBalance",
      "outputs": [
        {
          "internalType": "uint256",
          "name": "",
          "type": "uint256"
        }
      ],
      "stateMutability": "view",
      "type": "function"
    },
    {
      "inputs": [],
      "name": "getInheritanceDetails",
      "outputs": [
        {
          "internalType": "bool",
          "name": "isActive",
          "type": "bool"
        },
        {
          "internalType": "uint256",
          "name": "totalShares",
          "type": "uint256"
        },
        {
          "internalType": "uint256",
          "name": "totalAmount",
          "type": "uint256"
        },
        {
          "internalType": "uint256",
          "name": "currentBalance",
          "type": "uint256"
        }
      ],
      "stateMutability": "view",
      "type": "function"
    },
    {
      "inputs": [
        {
          "internalType": "address",
          "name": "owner",
          "type": "address"
        }
      ],
      "name": "getInheritanceStatus",
      "outputs": [
        {
          "internalType": "bool",
          "name": "isActive",
          "type": "bool"
        },
        {
          "internalType": "bool",
          "name": "isDead",
          "type": "bool"
        },
        {
          "internalType": "uint256",
          "name": "confirmationCount",
          "type": "uint256"
        },
        {
          "internalType": "uint256",
          "name": "requiredConfirmations",
          "type": "uint256"
        },
        {
          "internalType": "bool",
          "name": "distributed",
          "type": "bool"
        }
      ],
      "stateMutability": "view",
      "type": "function"
    },
    {
      "inputs": [
        {
          "internalType": "address",
          "name": "owner",
          "type": "address"
        },
        {
          "internalType": "uint256",
          "name": "index",
          "type": "uint256"
        }
      ],
      "name": "getValidator",
      "outputs": [
        {
          "internalType": "address",
          "name": "",
          "type": "address"
        }
      ],
      "stateMutability": "view",
      "type": "function"
    },
    {
      "inputs": [
        {
          "internalType": "address",
          "name": "owner",
          "type": "address"
        },
        {
          "internalType": "uint256",
          "name": "index",
          "type": "uint256"
        }
      ],
      "name": "getValidatorConfirmation",
      "outputs": [
        {
          "internalType": "bool",
          "name": "",
          "type": "bool"
        }
      ],
      "stateMutability": "view",
      "type": "function"
    },
    {
      "inputs": [
        {
          "internalType": "address",
          "name": "owner",
          "type": "address"
        }
      ],
      "name": "getValidatorConfirmations",
      "outputs": [
        {
          "internalType": "uint256",
          "name": "totalValidators",
          "type": "uint256"
        },
        {
          "internalType": "uint256",
          "name": "confirmedCount",
          "type": "uint256"
        },
        {
          "internalType": "uint256",
          "name": "requiredConfirmations",
          "type": "uint256"
        }
      ],
      "stateMutability": "view",
      "type": "function"
    },
    {
      "inputs": [
        {
          "internalType": "address",
          "name": "owner",
          "type": "address"
        }
      ],
      "name": "getValidatorCount",
      "outputs": [
        {
          "internalType": "uint256",
          "name": "",
          "type": "uint256"
        }
      ],
      "stateMutability": "view",
      "type": "function"
    },
    {
      "inputs": [
        {
          "internalType": "address",
          "name": "owner",
          "type": "address"
        },
        {
          "internalType": "address",
          "name": "validator",
          "type": "address"
        }
      ],
      "name": "getValidatorIndex",
      "outputs": [
        {
          "internalType": "uint256",
          "name": "",
          "type": "uint256"
        }
      ],
      "stateMutability": "view",
      "type": "function"
    },
    {
      "inputs": [
        {
          "internalType": "address",
          "name": "validator",
          "type": "address"
        }
      ],
      "name": "getValidatorInheritances",
      "outputs": [
        {
          "internalType": "address[]",
          "name": "",
          "type": "address[]"
        }
      ],
      "stateMutability": "view",
      "type": "function"
    },
    {
      "inputs": [
        {
          "internalType": "address",
          "name": "",
          "type": "address"
        }
      ],
      "name": "inheritances",
      "outputs": [
        {
          "internalType": "bool",
          "name": "isActive",
          "type": "bool"
        },
        {
          "internalType": "bool",
          "name": "isDead",
          "type": "bool"
        },
        {
          "internalType": "uint256",
          "name": "confirmationCount",
          "type": "uint256"
        },
        {
          "internalType": "uint256",
          "name": "requiredConfirmations",
          "type": "uint256"
        },
        {
          "internalType": "uint256",
          "name": "beneficiaryCount",
          "type": "uint256"
        },
        {
          "internalType": "uint256",
          "name": "validatorCount",
          "type": "uint256"
        },
        {
          "internalType": "uint256",
          "name": "totalShares",
          "type": "uint256"
        },
        {
          "internalType": "bool",
          "name": "distributed",
          "type": "bool"
        },
        {
          "internalType": "uint256",
          "name": "totalAmount",
          "type": "uint256"
        }
      ],
      "stateMutability": "view",
      "type": "function"
    },
    {
      "inputs": [
        {
          "internalType": "address",
          "name": "owner",
          "type": "address"
        },
        {
          "internalType": "address",
          "name": "validator",
          "type": "address"
        }
      ],
      "name": "isValidator",
      "outputs": [
        {
          "internalType": "bool",
          "name": "",
          "type": "bool"
        }
      ],
      "stateMutability": "view",
      "type": "function"
    },
    {
      "inputs": [],
      "name": "sendInheritanceAmount",
      "outputs": [],
      "stateMutability": "payable",
      "type": "function"
    },
    {
      "stateMutability": "payable",
      "type": "receive"
    }
  ],
  "bytecode": "0x608060405234801561001057600080fd5b50611a7d806100206000396000f3fe6080604052600436106101235760003560e01c806396074e70116100a0578063af43715f11610064578063af43715f14610470578063b5018db714610490578063d74ea1e5146104bd578063e5a489a714610515578063f9560e451461053557600080fd5b806396074e701461040057806399b4331d14610413578063aa14cc6b1461041b578063aab7c6d714610430578063ad81907a1461045057600080fd5b80634d238c8e116100e75780634d238c8e1461028f5780636122fed5146102af5780636983d64c1461035a57806378bfecaf146103bb5780637bc02403146103eb57600080fd5b80630a6cef461461012f57806315889d991461017357806319b699f21461018a5780632423c7f3146101c257806349d1a0601461020957600080fd5b3661012a57005b600080fd5b34801561013b57600080fd5b5061014f61014a366004611863565b61056e565b604080516001600160a01b0390931683526020830191909152015b60405180910390f35b34801561017f57600080fd5b5061018861066b565b005b34801561019657600080fd5b506101aa6101a536600461188d565b61076f565b6040516001600160a01b03909116815260200161016a565b3480156101ce57600080fd5b506101fb6101dd3660046118a6565b6001600160a01b031660009081526020819052604090206004015490565b60405190815260200161016a565b34801561021557600080fd5b506102636102243660046118a6565b6001600160a01b0316600090815260208190526040902080546001820154600283015460089093015460ff808416956101009094048116949293911690565b60408051951515865293151560208601529284019190915260608301521515608082015260a00161016a565b34801561029b57600080fd5b506101886102aa3660046118a6565b610799565b3480156102bb57600080fd5b506103126102ca3660046118a6565b6000602081905290815260409020805460018201546002830154600484015460068501546007860154600887015460099097015460ff80881698610100909804811697169089565b604080519915158a5297151560208a0152968801959095526060870193909352608086019190915260a085015260c0840152151560e08301526101008201526101200161016a565b34801561036657600080fd5b506103a06103753660046118a6565b6001600160a01b03166000908152602081905260409020600681015460018201546002909201549092565b6040805193845260208401929092529082015260600161016a565b3480156103c757600080fd5b506103db6103d6366004611863565b61091f565b604051901515815260200161016a565b3480156103f757600080fd5b506101fb6109b0565b61018861040e366004611863565b610a14565b610188610c5f565b34801561042757600080fd5b50610188610d61565b34801561043c57600080fd5b5061018861044b3660046118a6565b610fe8565b34801561045c57600080fd5b506101aa61046b366004611863565b611315565b34801561047c57600080fd5b506101fb61048b3660046118c8565b61139a565b34801561049c57600080fd5b506104b06104ab3660046118a6565b6114a8565b60405161016a91906118fb565b3480156104c957600080fd5b506104f33360009081526020819052604090208054600782015460099092015460ff909116924790565b604080519415158552602085019390935291830152606082015260800161016a565b34801561052157600080fd5b506103db6105303660046118c8565b6115fb565b34801561054157600080fd5b506101fb6105503660046118a6565b6001600160a01b031660009081526020819052604090206006015490565b6001600160a01b038216600090815260208190526040812054819060ff166105d55760405162461bcd60e51b8152602060048201526015602482015274125b9a195c9a5d185b98d9481b9bdd08199bdd5b99605a1b60448201526064015b60405180910390fd5b6001600160a01b03841660009081526020819052604090206004015483106106375760405162461bcd60e51b815260206004820152601560248201527410995b99599a58da585c9e481b9bdd08199bdd5b99605a1b60448201526064016105cc565b50506001600160a01b0391821660009081526020818152604080832093835260039093019052208054600190910154911691565b3360009081526020819052604090205460ff16156106cb5760405162461bcd60e51b815260206004820152601a60248201527f496e6865726974616e636520616c72656164792065786973747300000000000060448201526064016105cc565b33600081815260208190526040808220805461ffff1916600190811782558181018490556002820184905560048201849055600682018490556009909101839055805480820182559083527fb10e2d527612073b26eecdfd717e6a320cf44b4afac2b0732d9fcbe2b7fa0cf60180546001600160a01b03191684179055517fa887cc0c83620039f5804b762d01b310e2dedc32d3c9111412280cd541d5a7739190a2565b6001818154811061077f57600080fd5b6000918252602090912001546001600160a01b0316905081565b3360008181526020819052604090205460ff166107c85760405162461bcd60e51b81526004016105cc90611948565b6001600160a01b03821661081e5760405162461bcd60e51b815260206004820152601960248201527f496e76616c69642076616c696461746f7220616464726573730000000000000060448201526064016105cc565b33600090815260208190526040902054610100900460ff16156108535760405162461bcd60e51b81526004016105cc90611989565b33600081815260208181526040808320600681018054835180850185526001600160a01b038a81168252818701888152838952600590950187529487209051815494511515600160a01b026001600160a81b031990951695169490941792909217909255938352908290528054916108ca836119c6565b9091555050336000818152602081905260408082206006810154600290910155516001600160a01b03861692917f8064a302796c89446a96d63470b5b036212da26bd2debe5bec73e0170a9a5e8391a3505050565b6001600160a01b03821660009081526020819052604081206006015482106109795760405162461bcd60e51b815260206004820152600d60248201526c092dcecc2d8d2c840d2dcc8caf609b1b60448201526064016105cc565b506001600160a01b038216600090815260208181526040808320848452600501909152902054600160a01b900460ff165b92915050565b3360009081526020819052604081205460ff16610a0f5760405162461bcd60e51b815260206004820152601b60248201527f4e6f2061637469766520696e6865726974616e636520666f756e64000000000060448201526064016105cc565b504790565b3360008181526020819052604090205460ff16610a435760405162461bcd60e51b81526004016105cc90611948565b6001600160a01b038316610a995760405162461bcd60e51b815260206004820152601b60248201527f496e76616c69642062656e65666963696172792061646472657373000000000060448201526064016105cc565b60008211610ae95760405162461bcd60e51b815260206004820152601d60248201527f416d6f756e74206d7573742062652067726561746572207468616e203000000060448201526064016105cc565b813414610b475760405162461bcd60e51b815260206004820152602660248201527f4d7573742073656e6420657861637420616d6f756e7420666f722062656e656660448201526569636961727960d01b60648201526084016105cc565b33600090815260208190526040902054610100900460ff1615610b7c5760405162461bcd60e51b81526004016105cc90611989565b33600081815260208181526040808320600481018054835180850185526001600160a01b038b811682528187018b815283895260039095018752948720905181546001600160a01b0319169516949094178455915160019093019290925593835290829052805491610bed836119c6565b90915550503360009081526020819052604081206009018054859290610c149084906119df565b90915550506040518381526001600160a01b0385169033907f5d081d791b64899adab031015397ef8d7600501212ef97573b9e50f8c9bb6d9b9060200160405180910390a350505050565b3360009081526020819052604090205460ff16610cbe5760405162461bcd60e51b815260206004820152601b60248201527f4e6f2061637469766520696e6865726974616e636520666f756e64000000000060448201526064016105cc565b33600090815260208190526040902054610100900460ff1615610cf35760405162461bcd60e51b81526004016105cc90611989565b336000908152602081905260409020600901543414610d5f5760405162461bcd60e51b815260206004820152602260248201527f4d7573742073656e6420657861637420696e6865726974616e636520616d6f756044820152611b9d60f21b60648201526084016105cc565b565b3360008181526020819052604090205460ff16610d905760405162461bcd60e51b81526004016105cc90611948565b33600090815260208190526040902054610100900460ff1615610dc55760405162461bcd60e51b81526004016105cc90611989565b3360009081526020819052604090206009015415610e7a57336000818152602081905260408082206009015490519192918381818185875af1925050503d8060008114610e2e576040519150601f19603f3d011682016040523d82523d6000602084013e610e33565b606091505b5050905080610e785760405162461bcd60e51b8152602060048201526011602482015270115512081c995d1d5c9b8819985a5b1959607a1b60448201526064016105cc565b505b336000908152602081905260408120805461ffff19168155600181018290556002810182905560048101829055600681018290556009018190555b600154811015610fb957336001600160a01b031660018281548110610edc57610edc6119f2565b6000918252602090912001546001600160a01b031603610fa75760018054610f05908290611a08565b81548110610f1557610f156119f2565b600091825260209091200154600180546001600160a01b039092169183908110610f4157610f416119f2565b9060005260206000200160006101000a8154816001600160a01b0302191690836001600160a01b031602179055506001805480610f8057610f80611a1b565b600082815260209020810160001990810180546001600160a01b0319169055019055610fb9565b80610fb1816119c6565b915050610eb5565b5060405133907f577d80a92396a49283a298935287995fee74eceefc62c3edfdf8257ec854629690600090a250565b6001600160a01b038116600090815260208190526040902054819060ff166110225760405162461bcd60e51b81526004016105cc90611948565b6001600160a01b038216600090815260208190526040902054610100900460ff16156110905760405162461bcd60e51b815260206004820152601760248201527f446561746820616c726561647920636f6e6669726d656400000000000000000060448201526064016105cc565b6001600160a01b0382166000908152602081905260409020600401546110f15760405162461bcd60e51b8152602060048201526016602482015275139bc818995b99599a58da585c9a595cc8185919195960521b60448201526064016105cc565b600080805b6001600160a01b038516600090815260208190526040902060060154811015611165576001600160a01b03858116600090815260208181526040808320858452600501909152902054339116036111535780925060019150611165565b8061115d816119c6565b9150506110f6565b50806111a55760405162461bcd60e51b815260206004820152600f60248201526e2737ba1030903b30b634b230ba37b960891b60448201526064016105cc565b6001600160a01b038416600090815260208181526040808320858452600501909152902054600160a01b900460ff16156112155760405162461bcd60e51b8152602060048201526011602482015270105b1c9958591e4818dbdb999a5c9b5959607a1b60448201526064016105cc565b6001600160a01b038416600081815260208181526040808320868452600581018352908320805460ff60a01b1916600160a01b179055928252819052600191909101805491611263836119c6565b90915550506001600160a01b038416600081815260208181526040918290206001015491519182523392917f8af56bba0af6fb33e99284318ba113350ec3f9424b6263a8b01b6e00fb2651ea910160405180910390a36001600160a01b038416600090815260208190526040902060068101546001909101540361130f576001600160a01b0384166000908152602081905260409020805461ff00191661010017905561130f8461169f565b50505050565b6001600160a01b038216600090815260208190526040812060060154821061136f5760405162461bcd60e51b815260206004820152600d60248201526c092dcecc2d8d2c840d2dcc8caf609b1b60448201526064016105cc565b506001600160a01b039182166000908152602081815260408083209383526005909301905220541690565b6001600160a01b03821660009081526020819052604081205460ff166113fa5760405162461bcd60e51b8152602060048201526015602482015274125b9a195c9a5d185b98d9481b9bdd08199bdd5b99605a1b60448201526064016105cc565b60005b6001600160a01b038416600090815260208190526040902060060154811015611469576001600160a01b038481166000908152602081815260408083208584526005019091529020548185169116036114575790506109aa565b80611461816119c6565b9150506113fd565b5060405162461bcd60e51b815260206004820152601360248201527215985b1a59185d1bdc881b9bdd08199bdd5b99606a1b60448201526064016105cc565b60606000805b600154811015611514576000600182815481106114cd576114cd6119f2565b6000918252602090912001546001600160a01b031690506114ee81866115fb565b1561150157826114fd816119c6565b9350505b508061150c816119c6565b9150506114ae565b5060008167ffffffffffffffff81111561153057611530611a31565b604051908082528060200260200182016040528015611559578160200160208202803683370190505b5090506000805b6001548110156115f15760006001828154811061157f5761157f6119f2565b6000918252602090912001546001600160a01b031690506115a081886115fb565b156115de57808484815181106115b8576115b86119f2565b6001600160a01b0390921660209283029190910190910152826115da816119c6565b9350505b50806115e9816119c6565b915050611560565b5090949350505050565b6001600160a01b03821660009081526020819052604081205460ff16611623575060006109aa565b60005b6001600160a01b038416600090815260208190526040902060060154811015611695576001600160a01b038481166000908152602081815260408083208584526005019091529020548185169116036116835760019150506109aa565b8061168d816119c6565b915050611626565b5060009392505050565b6001600160a01b03811660009081526020819052604090206008015460ff16156117015760405162461bcd60e51b8152602060048201526013602482015272105b1c9958591e48191a5cdd1c9a589d5d1959606a1b60448201526064016105cc565b60005b6001600160a01b0382166000908152602081905260409020600401548110156117f7576001600160a01b0382811660009081526020818152604080832085845260030190915280822080546001909101549151931692909190839083908381818185875af1925050503d8060008114611799576040519150601f19603f3d011682016040523d82523d6000602084013e61179e565b606091505b50509050806117e15760405162461bcd60e51b815260206004820152600f60248201526e151c985b9cd9995c8819985a5b1959608a1b60448201526064016105cc565b50505080806117ef906119c6565b915050611704565b506001600160a01b038116600081815260208190526040808220600801805460ff19166001179055517fe22111dd7904e8aca32090f5631e0ca476ced5e3081ccb9528640ae57f46880d9190a250565b80356001600160a01b038116811461185e57600080fd5b919050565b6000806040838503121561187657600080fd5b61187f83611847565b946020939093013593505050565b60006020828403121561189f57600080fd5b5035919050565b6000602082840312156118b857600080fd5b6118c182611847565b9392505050565b600080604083850312156118db57600080fd5b6118e483611847565b91506118f260208401611847565b90509250929050565b6020808252825182820181905260009190848201906040850190845b8181101561193c5783516001600160a01b031683529284019291840191600101611917565b50909695505050505050565b60208082526021908201527f496e6865726974616e6365206e6f7420666f756e64206f7220696e61637469766040820152606560f81b606082015260800190565b6020808252600d908201526c13dddb995c881a5cc819195859609a1b604082015260600190565b634e487b7160e01b600052601160045260246000fd5b6000600182016119d8576119d86119b0565b5060010190565b808201808211156109aa576109aa6119b0565b634e487b7160e01b600052603260045260246000fd5b818103818111156109aa576109aa6119b0565b634e487b7160e01b600052603160045260246000fd5b634e487b7160e01b600052604160045260246000fdfea2646970667358221220fe3aafac948969e723d473f6d25afd1c6eb122af0fe7551ee07accd72de0dbe364736f6c63430008130033",
  "linkReferences": {},
  "deployedLinkReferences": {}
}