{
  "_format": "hh-sol-artifact-1",
  "contractName": "InheritanceManager",
  "sourceName": "contracts/InheritanceManager.sol",
  "abi": [
    {
      "anonymous": false,
      "inputs": [
        {
          "indexed": true,
          "internalType": "address",
          "name": "owner",
          "type": "address"
        },
        {
          "indexed": true,
          "internalType": "address",
          "name": "beneficiary",
          "type": "address"
        },
        {
          "indexed": false,
          "internalType": "uint256",
          "name": "share",
          "type": "uint256"
        }
      ],
      "name": "BeneficiaryAdded",
      "type": "event"
    },
    {
      "anonymous": false,
      "inputs": [
        {
          "indexed": true,
          "internalType": "address",
          "name": "owner",
          "type": "address"
        },
        {
          "indexed": true,
          "internalType": "address",
          "name": "validator",
          "type": "address"
        }
      ],
      "name": "DeathConfirmed",
      "type": "event"
    },
    {
      "anonymous": false,
      "inputs": [
        {
          "indexed": true,
          "internalType": "address",
          "name": "owner",
          "type": "address"
        }
      ],
      "name": "InheritanceCancelled",
      "type": "event"
    },
    {
      "anonymous": false,
      "inputs": [
        {
          "indexed": true,
          "internalType": "address",
          "name": "owner",
          "type": "address"
        }
      ],
      "name": "InheritanceCreated",
      "type": "event"
    },
    {
      "anonymous": false,
      "inputs": [
        {
          "indexed": true,
          "internalType": "address",
          "name": "owner",
          "type": "address"
        }
      ],
      "name": "InheritanceDistributed",
      "type": "event"
    },
    {
      "anonymous": false,
      "inputs": [
        {
          "indexed": true,
          "internalType": "address",
          "name": "previousOwner",
          "type": "address"
        },
        {
          "indexed": true,
          "internalType": "address",
          "name": "newOwner",
          "type": "address"
        }
      ],
      "name": "OwnershipTransferred",
      "type": "event"
    },
    {
      "anonymous": false,
      "inputs": [
        {
          "indexed": true,
          "internalType": "address",
          "name": "owner",
          "type": "address"
        },
        {
          "indexed": true,
          "internalType": "address",
          "name": "validator",
          "type": "address"
        }
      ],
      "name": "ValidatorAdded",
      "type": "event"
    },
    {
      "inputs": [
        {
          "internalType": "address",
          "name": "_beneficiary",
          "type": "address"
        },
        {
          "internalType": "uint256",
          "name": "_share",
          "type": "uint256"
        }
      ],
      "name": "addBeneficiary",
      "outputs": [],
      "stateMutability": "nonpayable",
      "type": "function"
    },
    {
      "inputs": [
        {
          "internalType": "address",
          "name": "_validator",
          "type": "address"
        }
      ],
      "name": "addValidator",
      "outputs": [],
      "stateMutability": "nonpayable",
      "type": "function"
    },
    {
      "inputs": [],
      "name": "cancelInheritance",
      "outputs": [],
      "stateMutability": "nonpayable",
      "type": "function"
    },
    {
      "inputs": [
        {
          "internalType": "address",
          "name": "_owner",
          "type": "address"
        }
      ],
      "name": "confirmDeath",
      "outputs": [],
      "stateMutability": "nonpayable",
      "type": "function"
    },
    {
      "inputs": [
        {
          "internalType": "uint256",
          "name": "_requiredConfirmations",
          "type": "uint256"
        }
      ],
      "name": "createInheritance",
      "outputs": [],
      "stateMutability": "nonpayable",
      "type": "function"
    },
    {
      "inputs": [
        {
          "internalType": "address",
          "name": "owner",
          "type": "address"
        },
        {
          "internalType": "uint256",
          "name": "index",
          "type": "uint256"
        }
      ],
      "name": "getBeneficiary",
      "outputs": [
        {
          "internalType": "address",
          "name": "wallet",
          "type": "address"
        },
        {
          "internalType": "uint256",
          "name": "share",
          "type": "uint256"
        }
      ],
      "stateMutability": "view",
      "type": "function"
    },
    {
      "inputs": [
        {
          "internalType": "address",
          "name": "owner",
          "type": "address"
        }
      ],
      "name": "getBeneficiaryCount",
      "outputs": [
        {
          "internalType": "uint256",
          "name": "",
          "type": "uint256"
        }
      ],
      "stateMutability": "view",
      "type": "function"
    },
    {
      "inputs": [
        {
          "internalType": "address",
          "name": "owner",
          "type": "address"
        },
        {
          "internalType": "uint256",
          "name": "index",
          "type": "uint256"
        }
      ],
      "name": "getValidator",
      "outputs": [
        {
          "internalType": "address",
          "name": "",
          "type": "address"
        }
      ],
      "stateMutability": "view",
      "type": "function"
    },
    {
      "inputs": [
        {
          "internalType": "address",
          "name": "owner",
          "type": "address"
        },
        {
          "internalType": "uint256",
          "name": "index",
          "type": "uint256"
        }
      ],
      "name": "getValidatorConfirmation",
      "outputs": [
        {
          "internalType": "bool",
          "name": "",
          "type": "bool"
        }
      ],
      "stateMutability": "view",
      "type": "function"
    },
    {
      "inputs": [
        {
          "internalType": "address",
          "name": "owner",
          "type": "address"
        }
      ],
      "name": "getValidatorCount",
      "outputs": [
        {
          "internalType": "uint256",
          "name": "",
          "type": "uint256"
        }
      ],
      "stateMutability": "view",
      "type": "function"
    },
    {
      "inputs": [
        {
          "internalType": "address",
          "name": "",
          "type": "address"
        }
      ],
      "name": "inheritances",
      "outputs": [
        {
          "internalType": "address",
          "name": "owner",
          "type": "address"
        },
        {
          "internalType": "uint256",
          "name": "requiredConfirmations",
          "type": "uint256"
        },
        {
          "internalType": "bool",
          "name": "isActive",
          "type": "bool"
        },
        {
          "internalType": "bool",
          "name": "isDead",
          "type": "bool"
        }
      ],
      "stateMutability": "view",
      "type": "function"
    },
    {
      "inputs": [],
      "name": "owner",
      "outputs": [
        {
          "internalType": "address",
          "name": "",
          "type": "address"
        }
      ],
      "stateMutability": "view",
      "type": "function"
    },
    {
      "inputs": [],
      "name": "renounceOwnership",
      "outputs": [],
      "stateMutability": "nonpayable",
      "type": "function"
    },
    {
      "inputs": [
        {
          "internalType": "address",
          "name": "newOwner",
          "type": "address"
        }
      ],
      "name": "transferOwnership",
      "outputs": [],
      "stateMutability": "nonpayable",
      "type": "function"
    },
    {
      "stateMutability": "payable",
      "type": "receive"
    }
  ],
  "bytecode": "0x60806040523480156200001157600080fd5b5060016000819055506200003a6200002e6200004060201b60201c565b6200004860201b60201c565b6200010e565b600033905090565b6000600160009054906101000a900473ffffffffffffffffffffffffffffffffffffffff16905081600160006101000a81548173ffffffffffffffffffffffffffffffffffffffff021916908373ffffffffffffffffffffffffffffffffffffffff1602179055508173ffffffffffffffffffffffffffffffffffffffff168173ffffffffffffffffffffffffffffffffffffffff167f8be0079c531659141344cd1fd0a4f28419497f9722a3daafe3b4186f6b6457e060405160405180910390a35050565b612ca2806200011e6000396000f3fe6080604052600436106100e15760003560e01c806396074e701161007f578063aab7c6d711610059578063aab7c6d7146102b9578063ad81907a146102e2578063f2fde38b1461031f578063f9560e4514610348576100e8565b806396074e7014610250578063a1f45bb214610279578063aa14cc6b146102a2576100e8565b80636122fed5116100bb5780636122fed514610191578063715018a6146101d157806378bfecaf146101e85780638da5cb5b14610225576100e8565b80630a6cef46146100ed5780632423c7f31461012b5780634d238c8e14610168576100e8565b366100e857005b600080fd5b3480156100f957600080fd5b50610114600480360381019061010f919061223a565b610385565b604051610122929190612799565b60405180910390f35b34801561013757600080fd5b50610152600480360381019061014d9190612211565b610537565b60405161015f9190612a42565b60405180910390f35b34801561017457600080fd5b5061018f600480360381019061018a9190612211565b610586565b005b34801561019d57600080fd5b506101b860048036038101906101b39190612211565b610899565b6040516101c894939291906127c2565b60405180910390f35b3480156101dd57600080fd5b506101e6610903565b005b3480156101f457600080fd5b5061020f600480360381019061020a919061223a565b610917565b60405161021c9190612807565b60405180910390f35b34801561023157600080fd5b5061023a610a3d565b604051610247919061277e565b60405180910390f35b34801561025c57600080fd5b506102776004803603810190610272919061223a565b610a67565b005b34801561028557600080fd5b506102a0600480360381019061029b9190612276565b610db4565b005b3480156102ae57600080fd5b506102b7610ff0565b005b3480156102c557600080fd5b506102e060048036038101906102db9190612211565b6112dd565b005b3480156102ee57600080fd5b506103096004803603810190610304919061223a565b611a03565b604051610316919061277e565b60405180910390f35b34801561032b57600080fd5b5061034660048036038101906103419190612211565b611b3c565b005b34801561035457600080fd5b5061036f600480360381019061036a9190612211565b611bc0565b60405161037c9190612a42565b60405180910390f35b600080600260008573ffffffffffffffffffffffffffffffffffffffff1673ffffffffffffffffffffffffffffffffffffffff16815260200190815260200160002060010180549050831061040f576040517f08c379a000000000000000000000000000000000000000000000000000000000815260040161040690612882565b60405180910390fd5b6000600260008673ffffffffffffffffffffffffffffffffffffffff1673ffffffffffffffffffffffffffffffffffffffff168152602001908152602001600020600101848154811061048b577f4e487b7100000000000000000000000000000000000000000000000000000000600052603260045260246000fd5b90600052602060002090600302016040518060600160405290816000820160009054906101000a900473ffffffffffffffffffffffffffffffffffffffff1673ffffffffffffffffffffffffffffffffffffffff1673ffffffffffffffffffffffffffffffffffffffff168152602001600182015481526020016002820160009054906101000a900460ff16151515158152505090508060000151816020015192509250509250929050565b6000600260008373ffffffffffffffffffffffffffffffffffffffff1673ffffffffffffffffffffffffffffffffffffffff168152602001908152602001600020600101805490509050919050565b600260003373ffffffffffffffffffffffffffffffffffffffff1673ffffffffffffffffffffffffffffffffffffffff16815260200190815260200160002060040160009054906101000a900460ff16610615576040517f08c379a000000000000000000000000000000000000000000000000000000000815260040161060c906128e2565b60405180910390fd5b600260003373ffffffffffffffffffffffffffffffffffffffff1673ffffffffffffffffffffffffffffffffffffffff16815260200190815260200160002060040160019054906101000a900460ff16156106a5576040517f08c379a000000000000000000000000000000000000000000000000000000000815260040161069c906129a2565b60405180910390fd5b600073ffffffffffffffffffffffffffffffffffffffff168173ffffffffffffffffffffffffffffffffffffffff161415610715576040517f08c379a000000000000000000000000000000000000000000000000000000000815260040161070c90612862565b60405180910390fd5b600260003373ffffffffffffffffffffffffffffffffffffffff1673ffffffffffffffffffffffffffffffffffffffff16815260200190815260200160002060020160405180606001604052808373ffffffffffffffffffffffffffffffffffffffff168152602001600015158152602001600115158152509080600181540180825580915050600190039060005260206000200160009091909190915060008201518160000160006101000a81548173ffffffffffffffffffffffffffffffffffffffff021916908373ffffffffffffffffffffffffffffffffffffffff16021790555060208201518160000160146101000a81548160ff02191690831515021790555060408201518160000160156101000a81548160ff02191690831515021790555050508073ffffffffffffffffffffffffffffffffffffffff163373ffffffffffffffffffffffffffffffffffffffff167f8064a302796c89446a96d63470b5b036212da26bd2debe5bec73e0170a9a5e8360405160405180910390a350565b60026020528060005260406000206000915090508060000160009054906101000a900473ffffffffffffffffffffffffffffffffffffffff16908060030154908060040160009054906101000a900460ff16908060040160019054906101000a900460ff16905084565b61090b611c0f565b6109156000611c8d565b565b6000600260008473ffffffffffffffffffffffffffffffffffffffff1673ffffffffffffffffffffffffffffffffffffffff1681526020019081526020016000206002018054905082106109a0576040517f08c379a000000000000000000000000000000000000000000000000000000000815260040161099790612882565b60405180910390fd5b600260008473ffffffffffffffffffffffffffffffffffffffff1673ffffffffffffffffffffffffffffffffffffffff1681526020019081526020016000206002018281548110610a1a577f4e487b7100000000000000000000000000000000000000000000000000000000600052603260045260246000fd5b9060005260206000200160000160149054906101000a900460ff16905092915050565b6000600160009054906101000a900473ffffffffffffffffffffffffffffffffffffffff16905090565b600260003373ffffffffffffffffffffffffffffffffffffffff1673ffffffffffffffffffffffffffffffffffffffff16815260200190815260200160002060040160009054906101000a900460ff16610af6576040517f08c379a0000000000000000000000000000000000000000000000000000000008152600401610aed906128e2565b60405180910390fd5b600260003373ffffffffffffffffffffffffffffffffffffffff1673ffffffffffffffffffffffffffffffffffffffff16815260200190815260200160002060040160019054906101000a900460ff1615610b86576040517f08c379a0000000000000000000000000000000000000000000000000000000008152600401610b7d906129a2565b60405180910390fd5b600073ffffffffffffffffffffffffffffffffffffffff168273ffffffffffffffffffffffffffffffffffffffff161415610bf6576040517f08c379a0000000000000000000000000000000000000000000000000000000008152600401610bed90612822565b60405180910390fd5b60008111610c39576040517f08c379a0000000000000000000000000000000000000000000000000000000008152600401610c30906128a2565b60405180910390fd5b600260003373ffffffffffffffffffffffffffffffffffffffff1673ffffffffffffffffffffffffffffffffffffffff16815260200190815260200160002060010160405180606001604052808473ffffffffffffffffffffffffffffffffffffffff16815260200183815260200160011515815250908060018154018082558091505060019003906000526020600020906003020160009091909190915060008201518160000160006101000a81548173ffffffffffffffffffffffffffffffffffffffff021916908373ffffffffffffffffffffffffffffffffffffffff1602179055506020820151816001015560408201518160020160006101000a81548160ff02191690831515021790555050508173ffffffffffffffffffffffffffffffffffffffff163373ffffffffffffffffffffffffffffffffffffffff167f5d081d791b64899adab031015397ef8d7600501212ef97573b9e50f8c9bb6d9b83604051610da89190612a42565b60405180910390a35050565b600260003373ffffffffffffffffffffffffffffffffffffffff1673ffffffffffffffffffffffffffffffffffffffff16815260200190815260200160002060040160009054906101000a900460ff1615610e44576040517f08c379a0000000000000000000000000000000000000000000000000000000008152600401610e3b90612922565b60405180910390fd5b60008111610e87576040517f08c379a0000000000000000000000000000000000000000000000000000000008152600401610e7e90612982565b60405180910390fd5b33600260003373ffffffffffffffffffffffffffffffffffffffff1673ffffffffffffffffffffffffffffffffffffffff16815260200190815260200160002060000160006101000a81548173ffffffffffffffffffffffffffffffffffffffff021916908373ffffffffffffffffffffffffffffffffffffffff16021790555080600260003373ffffffffffffffffffffffffffffffffffffffff1673ffffffffffffffffffffffffffffffffffffffff168152602001908152602001600020600301819055506001600260003373ffffffffffffffffffffffffffffffffffffffff1673ffffffffffffffffffffffffffffffffffffffff16815260200190815260200160002060040160006101000a81548160ff0219169083151502179055503373ffffffffffffffffffffffffffffffffffffffff167fa887cc0c83620039f5804b762d01b310e2dedc32d3c9111412280cd541d5a77360405160405180910390a250565b600260003373ffffffffffffffffffffffffffffffffffffffff1673ffffffffffffffffffffffffffffffffffffffff16815260200190815260200160002060040160009054906101000a900460ff1661107f576040517f08c379a0000000000000000000000000000000000000000000000000000000008152600401611076906129c2565b60405180910390fd5b3373ffffffffffffffffffffffffffffffffffffffff16600260003373ffffffffffffffffffffffffffffffffffffffff1673ffffffffffffffffffffffffffffffffffffffff16815260200190815260200160002060000160009054906101000a900473ffffffffffffffffffffffffffffffffffffffff1673ffffffffffffffffffffffffffffffffffffffff161461114f576040517f08c379a0000000000000000000000000000000000000000000000000000000008152600401611146906129e2565b60405180910390fd5b600260003373ffffffffffffffffffffffffffffffffffffffff1673ffffffffffffffffffffffffffffffffffffffff16815260200190815260200160002060040160019054906101000a900460ff16156111df576040517f08c379a00000000000000000000000000000000000000000000000000000000081526004016111d6906128c2565b60405180910390fd5b600260003373ffffffffffffffffffffffffffffffffffffffff1673ffffffffffffffffffffffffffffffffffffffff168152602001908152602001600020600080820160006101000a81549073ffffffffffffffffffffffffffffffffffffffff021916905560018201600061125691906120e2565b6002820160006112669190612106565b60038201600090556004820160006101000a81549060ff02191690556004820160016101000a81549060ff021916905550503373ffffffffffffffffffffffffffffffffffffffff167f577d80a92396a49283a298935287995fee74eceefc62c3edfdf8257ec854629660405160405180910390a2565b806000805b600260008473ffffffffffffffffffffffffffffffffffffffff1673ffffffffffffffffffffffffffffffffffffffff16815260200190815260200160002060020180549050811015611426573373ffffffffffffffffffffffffffffffffffffffff16600260008573ffffffffffffffffffffffffffffffffffffffff1673ffffffffffffffffffffffffffffffffffffffff16815260200190815260200160002060020182815481106113c0577f4e487b7100000000000000000000000000000000000000000000000000000000600052603260045260246000fd5b9060005260206000200160000160009054906101000a900473ffffffffffffffffffffffffffffffffffffffff1673ffffffffffffffffffffffffffffffffffffffff1614156114135760019150611426565b808061141e90612b97565b9150506112e2565b5080611467576040517f08c379a000000000000000000000000000000000000000000000000000000000815260040161145e90612902565b60405180910390fd5b61146f611d53565b600260008473ffffffffffffffffffffffffffffffffffffffff1673ffffffffffffffffffffffffffffffffffffffff16815260200190815260200160002060040160009054906101000a900460ff166114fe576040517f08c379a00000000000000000000000000000000000000000000000000000000081526004016114f5906128e2565b60405180910390fd5b600260008473ffffffffffffffffffffffffffffffffffffffff1673ffffffffffffffffffffffffffffffffffffffff16815260200190815260200160002060040160019054906101000a900460ff161561158e576040517f08c379a000000000000000000000000000000000000000000000000000000000815260040161158590612962565b60405180910390fd5b6000805b600260008673ffffffffffffffffffffffffffffffffffffffff1673ffffffffffffffffffffffffffffffffffffffff168152602001908152602001600020600201805490508110156118ec573373ffffffffffffffffffffffffffffffffffffffff16600260008773ffffffffffffffffffffffffffffffffffffffff1673ffffffffffffffffffffffffffffffffffffffff1681526020019081526020016000206002018281548110611670577f4e487b7100000000000000000000000000000000000000000000000000000000600052603260045260246000fd5b9060005260206000200160000160009054906101000a900473ffffffffffffffffffffffffffffffffffffffff1673ffffffffffffffffffffffffffffffffffffffff16141561183057600260008673ffffffffffffffffffffffffffffffffffffffff1673ffffffffffffffffffffffffffffffffffffffff1681526020019081526020016000206002018181548110611734577f4e487b7100000000000000000000000000000000000000000000000000000000600052603260045260246000fd5b9060005260206000200160000160149054906101000a900460ff161561178f576040517f08c379a000000000000000000000000000000000000000000000000000000000815260040161178690612a22565b60405180910390fd5b6001600260008773ffffffffffffffffffffffffffffffffffffffff1673ffffffffffffffffffffffffffffffffffffffff168152602001908152602001600020600201828154811061180b577f4e487b7100000000000000000000000000000000000000000000000000000000600052603260045260246000fd5b9060005260206000200160000160146101000a81548160ff0219169083151502179055505b600260008673ffffffffffffffffffffffffffffffffffffffff1673ffffffffffffffffffffffffffffffffffffffff16815260200190815260200160002060020181815481106118aa577f4e487b7100000000000000000000000000000000000000000000000000000000600052603260045260246000fd5b9060005260206000200160000160149054906101000a900460ff16156118d95781806118d590612b97565b9250505b80806118e490612b97565b915050611592565b50600260008573ffffffffffffffffffffffffffffffffffffffff1673ffffffffffffffffffffffffffffffffffffffff16815260200190815260200160002060030154811061199b576001600260008673ffffffffffffffffffffffffffffffffffffffff1673ffffffffffffffffffffffffffffffffffffffff16815260200190815260200160002060040160016101000a81548160ff02191690831515021790555061199a84611da3565b5b3373ffffffffffffffffffffffffffffffffffffffff168473ffffffffffffffffffffffffffffffffffffffff167fe7cc7707267442e0cb2e8d161ddcb534eeb6a607bfcc576d74dacdf5bf84f39460405160405180910390a3506119fe6120d0565b505050565b6000600260008473ffffffffffffffffffffffffffffffffffffffff1673ffffffffffffffffffffffffffffffffffffffff168152602001908152602001600020600201805490508210611a8c576040517f08c379a0000000000000000000000000000000000000000000000000000000008152600401611a8390612882565b60405180910390fd5b600260008473ffffffffffffffffffffffffffffffffffffffff1673ffffffffffffffffffffffffffffffffffffffff1681526020019081526020016000206002018281548110611b06577f4e487b7100000000000000000000000000000000000000000000000000000000600052603260045260246000fd5b9060005260206000200160000160009054906101000a900473ffffffffffffffffffffffffffffffffffffffff16905092915050565b611b44611c0f565b600073ffffffffffffffffffffffffffffffffffffffff168173ffffffffffffffffffffffffffffffffffffffff161415611bb4576040517f08c379a0000000000000000000000000000000000000000000000000000000008152600401611bab90612842565b60405180910390fd5b611bbd81611c8d565b50565b6000600260008373ffffffffffffffffffffffffffffffffffffffff1673ffffffffffffffffffffffffffffffffffffffff168152602001908152602001600020600201805490509050919050565b611c176120da565b73ffffffffffffffffffffffffffffffffffffffff16611c35610a3d565b73ffffffffffffffffffffffffffffffffffffffff1614611c8b576040517f08c379a0000000000000000000000000000000000000000000000000000000008152600401611c8290612942565b60405180910390fd5b565b6000600160009054906101000a900473ffffffffffffffffffffffffffffffffffffffff16905081600160006101000a81548173ffffffffffffffffffffffffffffffffffffffff021916908373ffffffffffffffffffffffffffffffffffffffff1602179055508173ffffffffffffffffffffffffffffffffffffffff168173ffffffffffffffffffffffffffffffffffffffff167f8be0079c531659141344cd1fd0a4f28419497f9722a3daafe3b4186f6b6457e060405160405180910390a35050565b60026000541415611d99576040517f08c379a0000000000000000000000000000000000000000000000000000000008152600401611d9090612a02565b60405180910390fd5b6002600081905550565b60004790506000805b600260008573ffffffffffffffffffffffffffffffffffffffff1673ffffffffffffffffffffffffffffffffffffffff16815260200190815260200160002060010180549050811015611ea557600260008573ffffffffffffffffffffffffffffffffffffffff1673ffffffffffffffffffffffffffffffffffffffff1681526020019081526020016000206001018181548110611e73577f4e487b7100000000000000000000000000000000000000000000000000000000600052603260045260246000fd5b90600052602060002090600302016001015482611e909190612a6e565b91508080611e9d90612b97565b915050611dac565b5060005b600260008573ffffffffffffffffffffffffffffffffffffffff1673ffffffffffffffffffffffffffffffffffffffff16815260200190815260200160002060010180549050811015612087576000600260008673ffffffffffffffffffffffffffffffffffffffff1673ffffffffffffffffffffffffffffffffffffffff1681526020019081526020016000206001018281548110611f72577f4e487b7100000000000000000000000000000000000000000000000000000000600052603260045260246000fd5b90600052602060002090600302016040518060600160405290816000820160009054906101000a900473ffffffffffffffffffffffffffffffffffffffff1673ffffffffffffffffffffffffffffffffffffffff1673ffffffffffffffffffffffffffffffffffffffff168152602001600182015481526020016002820160009054906101000a900460ff161515151581525050905060008382602001518661201b9190612af5565b6120259190612ac4565b9050816000015173ffffffffffffffffffffffffffffffffffffffff166108fc829081150290604051600060405180830381858888f19350505050158015612071573d6000803e3d6000fd5b505050808061207f90612b97565b915050611ea9565b508273ffffffffffffffffffffffffffffffffffffffff167fe22111dd7904e8aca32090f5631e0ca476ced5e3081ccb9528640ae57f46880d60405160405180910390a2505050565b6001600081905550565b600033905090565b50805460008255600302906000526020600020908101906121039190612127565b50565b50805460008255906000526020600020908101906121249190612181565b50565b5b8082111561217d57600080820160006101000a81549073ffffffffffffffffffffffffffffffffffffffff021916905560018201600090556002820160006101000a81549060ff021916905550600301612128565b5090565b5b808211156121e357600080820160006101000a81549073ffffffffffffffffffffffffffffffffffffffff02191690556000820160146101000a81549060ff02191690556000820160156101000a81549060ff021916905550600101612182565b5090565b6000813590506121f681612c3e565b92915050565b60008135905061220b81612c55565b92915050565b60006020828403121561222357600080fd5b6000612231848285016121e7565b91505092915050565b6000806040838503121561224d57600080fd5b600061225b858286016121e7565b925050602061226c858286016121fc565b9150509250929050565b60006020828403121561228857600080fd5b6000612296848285016121fc565b91505092915050565b6122a881612b4f565b82525050565b6122b781612b61565b82525050565b60006122ca601b83612a5d565b91507f496e76616c69642062656e6566696369617279206164647265737300000000006000830152602082019050919050565b600061230a602683612a5d565b91507f4f776e61626c653a206e6577206f776e657220697320746865207a65726f206160008301527f64647265737300000000000000000000000000000000000000000000000000006020830152604082019050919050565b6000612370601983612a5d565b91507f496e76616c69642076616c696461746f722061646472657373000000000000006000830152602082019050919050565b60006123b0600d83612a5d565b91507f496e76616c696420696e646578000000000000000000000000000000000000006000830152602082019050919050565b60006123f0601c83612a5d565b91507f5368617265206d7573742062652067726561746572207468616e2030000000006000830152602082019050919050565b6000612430602683612a5d565b91507f43616e6e6f742063616e63656c20616674657220646561746820636f6e66697260008301527f6d6174696f6e00000000000000000000000000000000000000000000000000006020830152604082019050919050565b6000612496601783612a5d565b91507f496e6865726974616e6365206e6f7420637265617465640000000000000000006000830152602082019050919050565b60006124d6601983612a5d565b91507f43616c6c6572206973206e6f7420612076616c696461746f72000000000000006000830152602082019050919050565b6000612516601a83612a5d565b91507f496e6865726974616e636520616c7265616479206578697374730000000000006000830152602082019050919050565b6000612556602083612a5d565b91507f4f776e61626c653a2063616c6c6572206973206e6f7420746865206f776e65726000830152602082019050919050565b6000612596601783612a5d565b91507f446561746820616c726561647920636f6e6669726d65640000000000000000006000830152602082019050919050565b60006125d6602d83612a5d565b91507f526571756972656420636f6e6669726d6174696f6e73206d757374206265206760008301527f726561746572207468616e2030000000000000000000000000000000000000006020830152604082019050919050565b600061263c601683612a5d565b91507f4f776e6572206973206465636c617265642064656164000000000000000000006000830152602082019050919050565b600061267c601583612a5d565b91507f496e6865726974616e6365206e6f7420666f756e6400000000000000000000006000830152602082019050919050565b60006126bc601583612a5d565b91507f4e6f7420696e6865726974616e6365206f776e657200000000000000000000006000830152602082019050919050565b60006126fc601f83612a5d565b91507f5265656e7472616e637947756172643a207265656e7472616e742063616c6c006000830152602082019050919050565b600061273c601183612a5d565b91507f416c726561647920636f6e6669726d65640000000000000000000000000000006000830152602082019050919050565b61277881612b8d565b82525050565b6000602082019050612793600083018461229f565b92915050565b60006040820190506127ae600083018561229f565b6127bb602083018461276f565b9392505050565b60006080820190506127d7600083018761229f565b6127e4602083018661276f565b6127f160408301856122ae565b6127fe60608301846122ae565b95945050505050565b600060208201905061281c60008301846122ae565b92915050565b6000602082019050818103600083015261283b816122bd565b9050919050565b6000602082019050818103600083015261285b816122fd565b9050919050565b6000602082019050818103600083015261287b81612363565b9050919050565b6000602082019050818103600083015261289b816123a3565b9050919050565b600060208201905081810360008301526128bb816123e3565b9050919050565b600060208201905081810360008301526128db81612423565b9050919050565b600060208201905081810360008301526128fb81612489565b9050919050565b6000602082019050818103600083015261291b816124c9565b9050919050565b6000602082019050818103600083015261293b81612509565b9050919050565b6000602082019050818103600083015261295b81612549565b9050919050565b6000602082019050818103600083015261297b81612589565b9050919050565b6000602082019050818103600083015261299b816125c9565b9050919050565b600060208201905081810360008301526129bb8161262f565b9050919050565b600060208201905081810360008301526129db8161266f565b9050919050565b600060208201905081810360008301526129fb816126af565b9050919050565b60006020820190508181036000830152612a1b816126ef565b9050919050565b60006020820190508181036000830152612a3b8161272f565b9050919050565b6000602082019050612a57600083018461276f565b92915050565b600082825260208201905092915050565b6000612a7982612b8d565b9150612a8483612b8d565b9250827fffffffffffffffffffffffffffffffffffffffffffffffffffffffffffffffff03821115612ab957612ab8612be0565b5b828201905092915050565b6000612acf82612b8d565b9150612ada83612b8d565b925082612aea57612ae9612c0f565b5b828204905092915050565b6000612b0082612b8d565b9150612b0b83612b8d565b9250817fffffffffffffffffffffffffffffffffffffffffffffffffffffffffffffffff0483118215151615612b4457612b43612be0565b5b828202905092915050565b6000612b5a82612b6d565b9050919050565b60008115159050919050565b600073ffffffffffffffffffffffffffffffffffffffff82169050919050565b6000819050919050565b6000612ba282612b8d565b91507fffffffffffffffffffffffffffffffffffffffffffffffffffffffffffffffff821415612bd557612bd4612be0565b5b600182019050919050565b7f4e487b7100000000000000000000000000000000000000000000000000000000600052601160045260246000fd5b7f4e487b7100000000000000000000000000000000000000000000000000000000600052601260045260246000fd5b612c4781612b4f565b8114612c5257600080fd5b50565b612c5e81612b8d565b8114612c6957600080fd5b5056fea26469706673582212202fdd7a30478c737f627b95c019d27b3cb9d91ee09b55149f287ed2bcb4a42fa864736f6c63430008000033",
  "linkReferences": {},
  "deployedLinkReferences": {}
}