{
  "_format": "hh-sol-artifact-1",
  "contractName": "InheritanceManager",
  "sourceName": "contracts/InheritanceManager.sol",
  "abi": [
    {
      "anonymous": false,
      "inputs": [
        {
          "indexed": true,
          "internalType": "address",
          "name": "owner",
          "type": "address"
        },
        {
          "indexed": true,
          "internalType": "address",
          "name": "beneficiary",
          "type": "address"
        },
        {
          "indexed": false,
          "internalType": "uint256",
          "name": "share",
          "type": "uint256"
        }
      ],
      "name": "BeneficiaryAdded",
      "type": "event"
    },
    {
      "anonymous": false,
      "inputs": [
        {
          "indexed": true,
          "internalType": "address",
          "name": "owner",
          "type": "address"
        },
        {
          "indexed": true,
          "internalType": "address",
          "name": "validator",
          "type": "address"
        }
      ],
      "name": "DeathConfirmed",
      "type": "event"
    },
    {
      "anonymous": false,
      "inputs": [
        {
          "indexed": true,
          "internalType": "address",
          "name": "owner",
          "type": "address"
        }
      ],
      "name": "InheritanceCancelled",
      "type": "event"
    },
    {
      "anonymous": false,
      "inputs": [
        {
          "indexed": true,
          "internalType": "address",
          "name": "owner",
          "type": "address"
        },
        {
          "indexed": false,
          "internalType": "uint256",
          "name": "requiredConfirmations",
          "type": "uint256"
        }
      ],
      "name": "InheritanceCreated",
      "type": "event"
    },
    {
      "anonymous": false,
      "inputs": [
        {
          "indexed": true,
          "internalType": "address",
          "name": "owner",
          "type": "address"
        }
      ],
      "name": "InheritanceDistributed",
      "type": "event"
    },
    {
      "anonymous": false,
      "inputs": [
        {
          "indexed": true,
          "internalType": "address",
          "name": "owner",
          "type": "address"
        },
        {
          "indexed": false,
          "internalType": "uint256",
          "name": "currentValidators",
          "type": "uint256"
        },
        {
          "indexed": false,
          "internalType": "uint256",
          "name": "requiredConfirmations",
          "type": "uint256"
        }
      ],
      "name": "InsufficientValidators",
      "type": "event"
    },
    {
      "anonymous": false,
      "inputs": [
        {
          "indexed": true,
          "internalType": "address",
          "name": "previousOwner",
          "type": "address"
        },
        {
          "indexed": true,
          "internalType": "address",
          "name": "newOwner",
          "type": "address"
        }
      ],
      "name": "OwnershipTransferred",
      "type": "event"
    },
    {
      "anonymous": false,
      "inputs": [
        {
          "indexed": true,
          "internalType": "address",
          "name": "owner",
          "type": "address"
        },
        {
          "indexed": false,
          "internalType": "uint256",
          "name": "newRequiredConfirmations",
          "type": "uint256"
        }
      ],
      "name": "RequiredConfirmationsUpdated",
      "type": "event"
    },
    {
      "anonymous": false,
      "inputs": [
        {
          "indexed": true,
          "internalType": "address",
          "name": "owner",
          "type": "address"
        },
        {
          "indexed": true,
          "internalType": "address",
          "name": "validator",
          "type": "address"
        }
      ],
      "name": "ValidatorAdded",
      "type": "event"
    },
    {
      "inputs": [
        {
          "internalType": "address",
          "name": "_beneficiary",
          "type": "address"
        },
        {
          "internalType": "uint256",
          "name": "_share",
          "type": "uint256"
        }
      ],
      "name": "addBeneficiary",
      "outputs": [],
      "stateMutability": "nonpayable",
      "type": "function"
    },
    {
      "inputs": [
        {
          "internalType": "address",
          "name": "_validator",
          "type": "address"
        }
      ],
      "name": "addValidator",
      "outputs": [],
      "stateMutability": "nonpayable",
      "type": "function"
    },
    {
      "inputs": [
        {
          "internalType": "uint256",
          "name": "",
          "type": "uint256"
        }
      ],
      "name": "allInheritances",
      "outputs": [
        {
          "internalType": "address",
          "name": "",
          "type": "address"
        }
      ],
      "stateMutability": "view",
      "type": "function"
    },
    {
      "inputs": [],
      "name": "cancelInheritance",
      "outputs": [],
      "stateMutability": "nonpayable",
      "type": "function"
    },
    {
      "inputs": [
        {
          "internalType": "address",
          "name": "_owner",
          "type": "address"
        }
      ],
      "name": "confirmDeath",
      "outputs": [],
      "stateMutability": "nonpayable",
      "type": "function"
    },
    {
      "inputs": [],
      "name": "createInheritance",
      "outputs": [],
      "stateMutability": "nonpayable",
      "type": "function"
    },
    {
      "inputs": [
        {
          "internalType": "address",
          "name": "owner",
          "type": "address"
        },
        {
          "internalType": "uint256",
          "name": "index",
          "type": "uint256"
        }
      ],
      "name": "getBeneficiary",
      "outputs": [
        {
          "internalType": "address",
          "name": "wallet",
          "type": "address"
        },
        {
          "internalType": "uint256",
          "name": "share",
          "type": "uint256"
        }
      ],
      "stateMutability": "view",
      "type": "function"
    },
    {
      "inputs": [
        {
          "internalType": "address",
          "name": "owner",
          "type": "address"
        }
      ],
      "name": "getBeneficiaryCount",
      "outputs": [
        {
          "internalType": "uint256",
          "name": "",
          "type": "uint256"
        }
      ],
      "stateMutability": "view",
      "type": "function"
    },
    {
      "inputs": [
        {
          "internalType": "address",
          "name": "owner",
          "type": "address"
        },
        {
          "internalType": "uint256",
          "name": "index",
          "type": "uint256"
        }
      ],
      "name": "getValidator",
      "outputs": [
        {
          "internalType": "address",
          "name": "",
          "type": "address"
        }
      ],
      "stateMutability": "view",
      "type": "function"
    },
    {
      "inputs": [
        {
          "internalType": "address",
          "name": "owner",
          "type": "address"
        },
        {
          "internalType": "uint256",
          "name": "index",
          "type": "uint256"
        }
      ],
      "name": "getValidatorConfirmation",
      "outputs": [
        {
          "internalType": "bool",
          "name": "",
          "type": "bool"
        }
      ],
      "stateMutability": "view",
      "type": "function"
    },
    {
      "inputs": [
        {
          "internalType": "address",
          "name": "owner",
          "type": "address"
        }
      ],
      "name": "getValidatorCount",
      "outputs": [
        {
          "internalType": "uint256",
          "name": "",
          "type": "uint256"
        }
      ],
      "stateMutability": "view",
      "type": "function"
    },
    {
      "inputs": [
        {
          "internalType": "address",
          "name": "owner",
          "type": "address"
        },
        {
          "internalType": "address",
          "name": "validator",
          "type": "address"
        }
      ],
      "name": "getValidatorIndex",
      "outputs": [
        {
          "internalType": "uint256",
          "name": "",
          "type": "uint256"
        }
      ],
      "stateMutability": "view",
      "type": "function"
    },
    {
      "inputs": [
        {
          "internalType": "address",
          "name": "validator",
          "type": "address"
        }
      ],
      "name": "getValidatorInheritances",
      "outputs": [
        {
          "internalType": "address[]",
          "name": "",
          "type": "address[]"
        }
      ],
      "stateMutability": "view",
      "type": "function"
    },
    {
      "inputs": [
        {
          "internalType": "address",
          "name": "",
          "type": "address"
        }
      ],
      "name": "inheritances",
      "outputs": [
        {
          "internalType": "address",
          "name": "owner",
          "type": "address"
        },
        {
          "internalType": "uint256",
          "name": "requiredConfirmations",
          "type": "uint256"
        },
        {
          "internalType": "bool",
          "name": "isActive",
          "type": "bool"
        },
        {
          "internalType": "bool",
          "name": "isDead",
          "type": "bool"
        },
        {
          "internalType": "uint256",
          "name": "confirmationCount",
          "type": "uint256"
        }
      ],
      "stateMutability": "view",
      "type": "function"
    },
    {
      "inputs": [
        {
          "internalType": "address",
          "name": "owner",
          "type": "address"
        },
        {
          "internalType": "address",
          "name": "validator",
          "type": "address"
        }
      ],
      "name": "isValidator",
      "outputs": [
        {
          "internalType": "bool",
          "name": "",
          "type": "bool"
        }
      ],
      "stateMutability": "view",
      "type": "function"
    },
    {
      "inputs": [],
      "name": "owner",
      "outputs": [
        {
          "internalType": "address",
          "name": "",
          "type": "address"
        }
      ],
      "stateMutability": "view",
      "type": "function"
    },
    {
      "inputs": [],
      "name": "renounceOwnership",
      "outputs": [],
      "stateMutability": "nonpayable",
      "type": "function"
    },
    {
      "inputs": [
        {
          "internalType": "address",
          "name": "newOwner",
          "type": "address"
        }
      ],
      "name": "transferOwnership",
      "outputs": [],
      "stateMutability": "nonpayable",
      "type": "function"
    },
    {
      "inputs": [
        {
          "internalType": "uint256",
          "name": "_newRequiredConfirmations",
          "type": "uint256"
        }
      ],
      "name": "updateRequiredConfirmations",
      "outputs": [],
      "stateMutability": "nonpayable",
      "type": "function"
    },
    {
      "stateMutability": "payable",
      "type": "receive"
    }
  ],
  "bytecode": "0x60806040523480156200001157600080fd5b5060016000819055506200003a6200002e6200004060201b60201c565b6200004860201b60201c565b6200010e565b600033905090565b6000600160009054906101000a900473ffffffffffffffffffffffffffffffffffffffff16905081600160006101000a81548173ffffffffffffffffffffffffffffffffffffffff021916908373ffffffffffffffffffffffffffffffffffffffff1602179055508173ffffffffffffffffffffffffffffffffffffffff168173ffffffffffffffffffffffffffffffffffffffff167f8be0079c531659141344cd1fd0a4f28419497f9722a3daafe3b4186f6b6457e060405160405180910390a35050565b613e00806200011e6000396000f3fe6080604052600436106101185760003560e01c80638da5cb5b116100a0578063af43715f11610064578063af43715f146103ab578063b5018db7146103e8578063e5a489a714610425578063f2fde38b14610462578063f9560e451461048b5761011f565b80638da5cb5b146102da57806396074e7014610305578063aa14cc6b1461032e578063aab7c6d714610345578063ad81907a1461036e5761011f565b80634d238c8e116100e75780634d238c8e146101f35780636122fed51461021c578063715018a61461025d57806378bfecaf1461027457806381b2db50146102b15761011f565b80630a6cef461461012457806315889d991461016257806319b699f2146101795780632423c7f3146101b65761011f565b3661011f57005b600080fd5b34801561013057600080fd5b5061014b60048036038101906101469190613094565b6104c8565b6040516101599291906137ad565b60405180910390f35b34801561016e57600080fd5b5061017761067a565b005b34801561018557600080fd5b506101a0600480360381019061019b91906130d0565b610893565b6040516101ad9190613792565b60405180910390f35b3480156101c257600080fd5b506101dd60048036038101906101d8919061302f565b6108d2565b6040516101ea9190613b21565b60405180910390f35b3480156101ff57600080fd5b5061021a6004803603810190610215919061302f565b610921565b005b34801561022857600080fd5b50610243600480360381019061023e919061302f565b610eb2565b6040516102549594939291906137d6565b60405180910390f35b34801561026957600080fd5b50610272610f22565b005b34801561028057600080fd5b5061029b60048036038101906102969190613094565b610f36565b6040516102a8919061384b565b60405180910390f35b3480156102bd57600080fd5b506102d860048036038101906102d391906130d0565b61105c565b005b3480156102e657600080fd5b506102ef61124e565b6040516102fc9190613792565b60405180910390f35b34801561031157600080fd5b5061032c60048036038101906103279190613094565b611278565b005b34801561033a57600080fd5b506103436115c5565b005b34801561035157600080fd5b5061036c6004803603810190610367919061302f565b611ae0565b005b34801561037a57600080fd5b5061039560048036038101906103909190613094565b612206565b6040516103a29190613792565b60405180910390f35b3480156103b757600080fd5b506103d260048036038101906103cd9190613058565b61233f565b6040516103df9190613b21565b60405180910390f35b3480156103f457600080fd5b5061040f600480360381019061040a919061302f565b612559565b60405161041c9190613829565b60405180910390f35b34801561043157600080fd5b5061044c60048036038101906104479190613058565b6127a7565b604051610459919061384b565b60405180910390f35b34801561046e57600080fd5b506104896004803603810190610484919061302f565b61295a565b005b34801561049757600080fd5b506104b260048036038101906104ad919061302f565b6129de565b6040516104bf9190613b21565b60405180910390f35b600080600260008573ffffffffffffffffffffffffffffffffffffffff1673ffffffffffffffffffffffffffffffffffffffff168152602001908152602001600020600101805490508310610552576040517f08c379a000000000000000000000000000000000000000000000000000000000815260040161054990613901565b60405180910390fd5b6000600260008673ffffffffffffffffffffffffffffffffffffffff1673ffffffffffffffffffffffffffffffffffffffff16815260200190815260200160002060010184815481106105ce577f4e487b7100000000000000000000000000000000000000000000000000000000600052603260045260246000fd5b90600052602060002090600302016040518060600160405290816000820160009054906101000a900473ffffffffffffffffffffffffffffffffffffffff1673ffffffffffffffffffffffffffffffffffffffff1673ffffffffffffffffffffffffffffffffffffffff168152602001600182015481526020016002820160009054906101000a900460ff16151515158152505090508060000151816020015192509250509250929050565b600260003373ffffffffffffffffffffffffffffffffffffffff1673ffffffffffffffffffffffffffffffffffffffff16815260200190815260200160002060040160009054906101000a900460ff161561070a576040517f08c379a0000000000000000000000000000000000000000000000000000000008152600401610701906139c1565b60405180910390fd5b6000600260003373ffffffffffffffffffffffffffffffffffffffff1673ffffffffffffffffffffffffffffffffffffffff1681526020019081526020016000209050338160000160006101000a81548173ffffffffffffffffffffffffffffffffffffffff021916908373ffffffffffffffffffffffffffffffffffffffff16021790555060018160040160006101000a81548160ff02191690831515021790555060008160040160016101000a81548160ff02191690831515021790555060008160030181905550600081600501819055506003339080600181540180825580915050600190039060005260206000200160009091909190916101000a81548173ffffffffffffffffffffffffffffffffffffffff021916908373ffffffffffffffffffffffffffffffffffffffff1602179055503373ffffffffffffffffffffffffffffffffffffffff167f7a8ab2e0cd728b35a8aca0bea965ba00838bd008caef4f09081b77676f82f7aa60006040516108889190613866565b60405180910390a250565b600381815481106108a357600080fd5b906000526020600020016000915054906101000a900473ffffffffffffffffffffffffffffffffffffffff1681565b6000600260008373ffffffffffffffffffffffffffffffffffffffff1673ffffffffffffffffffffffffffffffffffffffff168152602001908152602001600020600101805490509050919050565b600260003373ffffffffffffffffffffffffffffffffffffffff1673ffffffffffffffffffffffffffffffffffffffff16815260200190815260200160002060040160009054906101000a900460ff166109b0576040517f08c379a00000000000000000000000000000000000000000000000000000000081526004016109a790613981565b60405180910390fd5b600073ffffffffffffffffffffffffffffffffffffffff168173ffffffffffffffffffffffffffffffffffffffff161415610a20576040517f08c379a0000000000000000000000000000000000000000000000000000000008152600401610a17906138e1565b60405180910390fd5b3373ffffffffffffffffffffffffffffffffffffffff168173ffffffffffffffffffffffffffffffffffffffff161415610a8f576040517f08c379a0000000000000000000000000000000000000000000000000000000008152600401610a86906138a1565b60405180910390fd5b60005b600260003373ffffffffffffffffffffffffffffffffffffffff1673ffffffffffffffffffffffffffffffffffffffff16815260200190815260200160002060020180549050811015610c08578173ffffffffffffffffffffffffffffffffffffffff16600260003373ffffffffffffffffffffffffffffffffffffffff1673ffffffffffffffffffffffffffffffffffffffff1681526020019081526020016000206002018281548110610b70577f4e487b7100000000000000000000000000000000000000000000000000000000600052603260045260246000fd5b9060005260206000200160000160009054906101000a900473ffffffffffffffffffffffffffffffffffffffff1673ffffffffffffffffffffffffffffffffffffffff161415610bf5576040517f08c379a0000000000000000000000000000000000000000000000000000000008152600401610bec90613ac1565b60405180910390fd5b8080610c0090613cf5565b915050610a92565b50600060405180606001604052808373ffffffffffffffffffffffffffffffffffffffff168152602001600015158152602001600115158152509050600260003373ffffffffffffffffffffffffffffffffffffffff1673ffffffffffffffffffffffffffffffffffffffff168152602001908152602001600020600201819080600181540180825580915050600190039060005260206000200160009091909190915060008201518160000160006101000a81548173ffffffffffffffffffffffffffffffffffffffff021916908373ffffffffffffffffffffffffffffffffffffffff16021790555060208201518160000160146101000a81548160ff02191690831515021790555060408201518160000160156101000a81548160ff0219169083151502179055505050600260003373ffffffffffffffffffffffffffffffffffffffff1673ffffffffffffffffffffffffffffffffffffffff16815260200190815260200160002060020180549050600260003373ffffffffffffffffffffffffffffffffffffffff1673ffffffffffffffffffffffffffffffffffffffff168152602001908152602001600020600301819055508173ffffffffffffffffffffffffffffffffffffffff163373ffffffffffffffffffffffffffffffffffffffff167f8064a302796c89446a96d63470b5b036212da26bd2debe5bec73e0170a9a5e8360405160405180910390a33373ffffffffffffffffffffffffffffffffffffffff167f11d7679726c1b8a182b430afa615a42443840f83ffddcc85c29aae0e2c897d83600260003373ffffffffffffffffffffffffffffffffffffffff1673ffffffffffffffffffffffffffffffffffffffff16815260200190815260200160002060020180549050604051610ea69190613b21565b60405180910390a25050565b60026020528060005260406000206000915090508060000160009054906101000a900473ffffffffffffffffffffffffffffffffffffffff16908060030154908060040160009054906101000a900460ff16908060040160019054906101000a900460ff16908060050154905085565b610f2a612a2d565b610f346000612aab565b565b6000600260008473ffffffffffffffffffffffffffffffffffffffff1673ffffffffffffffffffffffffffffffffffffffff168152602001908152602001600020600201805490508210610fbf576040517f08c379a0000000000000000000000000000000000000000000000000000000008152600401610fb690613901565b60405180910390fd5b600260008473ffffffffffffffffffffffffffffffffffffffff1673ffffffffffffffffffffffffffffffffffffffff1681526020019081526020016000206002018281548110611039577f4e487b7100000000000000000000000000000000000000000000000000000000600052603260045260246000fd5b9060005260206000200160000160149054906101000a900460ff16905092915050565b600260003373ffffffffffffffffffffffffffffffffffffffff1673ffffffffffffffffffffffffffffffffffffffff16815260200190815260200160002060040160009054906101000a900460ff166110eb576040517f08c379a00000000000000000000000000000000000000000000000000000000081526004016110e290613981565b60405180910390fd5b6000811161112e576040517f08c379a000000000000000000000000000000000000000000000000000000000815260040161112590613a21565b60405180910390fd5b600260003373ffffffffffffffffffffffffffffffffffffffff1673ffffffffffffffffffffffffffffffffffffffff168152602001908152602001600020600201805490508111156111b6576040517f08c379a00000000000000000000000000000000000000000000000000000000081526004016111ad90613921565b60405180910390fd5b80600260003373ffffffffffffffffffffffffffffffffffffffff1673ffffffffffffffffffffffffffffffffffffffff168152602001908152602001600020600301819055503373ffffffffffffffffffffffffffffffffffffffff167f11d7679726c1b8a182b430afa615a42443840f83ffddcc85c29aae0e2c897d83826040516112439190613b21565b60405180910390a250565b6000600160009054906101000a900473ffffffffffffffffffffffffffffffffffffffff16905090565b600260003373ffffffffffffffffffffffffffffffffffffffff1673ffffffffffffffffffffffffffffffffffffffff16815260200190815260200160002060040160009054906101000a900460ff16611307576040517f08c379a00000000000000000000000000000000000000000000000000000000081526004016112fe90613981565b60405180910390fd5b600260003373ffffffffffffffffffffffffffffffffffffffff1673ffffffffffffffffffffffffffffffffffffffff16815260200190815260200160002060040160019054906101000a900460ff1615611397576040517f08c379a000000000000000000000000000000000000000000000000000000000815260040161138e90613a41565b60405180910390fd5b600073ffffffffffffffffffffffffffffffffffffffff168273ffffffffffffffffffffffffffffffffffffffff161415611407576040517f08c379a00000000000000000000000000000000000000000000000000000000081526004016113fe90613881565b60405180910390fd5b6000811161144a576040517f08c379a000000000000000000000000000000000000000000000000000000000815260040161144190613941565b60405180910390fd5b600260003373ffffffffffffffffffffffffffffffffffffffff1673ffffffffffffffffffffffffffffffffffffffff16815260200190815260200160002060010160405180606001604052808473ffffffffffffffffffffffffffffffffffffffff16815260200183815260200160011515815250908060018154018082558091505060019003906000526020600020906003020160009091909190915060008201518160000160006101000a81548173ffffffffffffffffffffffffffffffffffffffff021916908373ffffffffffffffffffffffffffffffffffffffff1602179055506020820151816001015560408201518160020160006101000a81548160ff02191690831515021790555050508173ffffffffffffffffffffffffffffffffffffffff163373ffffffffffffffffffffffffffffffffffffffff167f5d081d791b64899adab031015397ef8d7600501212ef97573b9e50f8c9bb6d9b836040516115b99190613b21565b60405180910390a35050565b600260003373ffffffffffffffffffffffffffffffffffffffff1673ffffffffffffffffffffffffffffffffffffffff16815260200190815260200160002060040160009054906101000a900460ff16611654576040517f08c379a000000000000000000000000000000000000000000000000000000000815260040161164b90613a61565b60405180910390fd5b3373ffffffffffffffffffffffffffffffffffffffff16600260003373ffffffffffffffffffffffffffffffffffffffff1673ffffffffffffffffffffffffffffffffffffffff16815260200190815260200160002060000160009054906101000a900473ffffffffffffffffffffffffffffffffffffffff1673ffffffffffffffffffffffffffffffffffffffff1614611724576040517f08c379a000000000000000000000000000000000000000000000000000000000815260040161171b90613a81565b60405180910390fd5b600260003373ffffffffffffffffffffffffffffffffffffffff1673ffffffffffffffffffffffffffffffffffffffff16815260200190815260200160002060040160019054906101000a900460ff16156117b4576040517f08c379a00000000000000000000000000000000000000000000000000000000081526004016117ab90613961565b60405180910390fd5b60005b6003805490508110156119d9573373ffffffffffffffffffffffffffffffffffffffff1660038281548110611815577f4e487b7100000000000000000000000000000000000000000000000000000000600052603260045260246000fd5b9060005260206000200160009054906101000a900473ffffffffffffffffffffffffffffffffffffffff1673ffffffffffffffffffffffffffffffffffffffff1614156119c657600360016003805490506118709190613c67565b815481106118a7577f4e487b7100000000000000000000000000000000000000000000000000000000600052603260045260246000fd5b9060005260206000200160009054906101000a900473ffffffffffffffffffffffffffffffffffffffff166003828154811061190c577f4e487b7100000000000000000000000000000000000000000000000000000000600052603260045260246000fd5b9060005260206000200160006101000a81548173ffffffffffffffffffffffffffffffffffffffff021916908373ffffffffffffffffffffffffffffffffffffffff160217905550600380548061198c577f4e487b7100000000000000000000000000000000000000000000000000000000600052603160045260246000fd5b6001900381819060005260206000200160006101000a81549073ffffffffffffffffffffffffffffffffffffffff021916905590556119d9565b80806119d190613cf5565b9150506117b7565b50600260003373ffffffffffffffffffffffffffffffffffffffff1673ffffffffffffffffffffffffffffffffffffffff168152602001908152602001600020600080820160006101000a81549073ffffffffffffffffffffffffffffffffffffffff0219169055600182016000611a519190612f00565b600282016000611a619190612f24565b60038201600090556004820160006101000a81549060ff02191690556004820160016101000a81549060ff0219169055600582016000905550503373ffffffffffffffffffffffffffffffffffffffff167f577d80a92396a49283a298935287995fee74eceefc62c3edfdf8257ec854629660405160405180910390a2565b806000805b600260008473ffffffffffffffffffffffffffffffffffffffff1673ffffffffffffffffffffffffffffffffffffffff16815260200190815260200160002060020180549050811015611c29573373ffffffffffffffffffffffffffffffffffffffff16600260008573ffffffffffffffffffffffffffffffffffffffff1673ffffffffffffffffffffffffffffffffffffffff1681526020019081526020016000206002018281548110611bc3577f4e487b7100000000000000000000000000000000000000000000000000000000600052603260045260246000fd5b9060005260206000200160000160009054906101000a900473ffffffffffffffffffffffffffffffffffffffff1673ffffffffffffffffffffffffffffffffffffffff161415611c165760019150611c29565b8080611c2190613cf5565b915050611ae5565b5080611c6a576040517f08c379a0000000000000000000000000000000000000000000000000000000008152600401611c61906139a1565b60405180910390fd5b611c72612b71565b600260008473ffffffffffffffffffffffffffffffffffffffff1673ffffffffffffffffffffffffffffffffffffffff16815260200190815260200160002060040160009054906101000a900460ff16611d01576040517f08c379a0000000000000000000000000000000000000000000000000000000008152600401611cf890613981565b60405180910390fd5b600260008473ffffffffffffffffffffffffffffffffffffffff1673ffffffffffffffffffffffffffffffffffffffff16815260200190815260200160002060040160019054906101000a900460ff1615611d91576040517f08c379a0000000000000000000000000000000000000000000000000000000008152600401611d8890613a01565b60405180910390fd5b6000805b600260008673ffffffffffffffffffffffffffffffffffffffff1673ffffffffffffffffffffffffffffffffffffffff168152602001908152602001600020600201805490508110156120ef573373ffffffffffffffffffffffffffffffffffffffff16600260008773ffffffffffffffffffffffffffffffffffffffff1673ffffffffffffffffffffffffffffffffffffffff1681526020019081526020016000206002018281548110611e73577f4e487b7100000000000000000000000000000000000000000000000000000000600052603260045260246000fd5b9060005260206000200160000160009054906101000a900473ffffffffffffffffffffffffffffffffffffffff1673ffffffffffffffffffffffffffffffffffffffff16141561203357600260008673ffffffffffffffffffffffffffffffffffffffff1673ffffffffffffffffffffffffffffffffffffffff1681526020019081526020016000206002018181548110611f37577f4e487b7100000000000000000000000000000000000000000000000000000000600052603260045260246000fd5b9060005260206000200160000160149054906101000a900460ff1615611f92576040517f08c379a0000000000000000000000000000000000000000000000000000000008152600401611f8990613ae1565b60405180910390fd5b6001600260008773ffffffffffffffffffffffffffffffffffffffff1673ffffffffffffffffffffffffffffffffffffffff168152602001908152602001600020600201828154811061200e577f4e487b7100000000000000000000000000000000000000000000000000000000600052603260045260246000fd5b9060005260206000200160000160146101000a81548160ff0219169083151502179055505b600260008673ffffffffffffffffffffffffffffffffffffffff1673ffffffffffffffffffffffffffffffffffffffff16815260200190815260200160002060020181815481106120ad577f4e487b7100000000000000000000000000000000000000000000000000000000600052603260045260246000fd5b9060005260206000200160000160149054906101000a900460ff16156120dc5781806120d890613cf5565b9250505b80806120e790613cf5565b915050611d95565b50600260008573ffffffffffffffffffffffffffffffffffffffff1673ffffffffffffffffffffffffffffffffffffffff16815260200190815260200160002060030154811061219e576001600260008673ffffffffffffffffffffffffffffffffffffffff1673ffffffffffffffffffffffffffffffffffffffff16815260200190815260200160002060040160016101000a81548160ff02191690831515021790555061219d84612bc1565b5b3373ffffffffffffffffffffffffffffffffffffffff168473ffffffffffffffffffffffffffffffffffffffff167fe7cc7707267442e0cb2e8d161ddcb534eeb6a607bfcc576d74dacdf5bf84f39460405160405180910390a350612201612eee565b505050565b6000600260008473ffffffffffffffffffffffffffffffffffffffff1673ffffffffffffffffffffffffffffffffffffffff16815260200190815260200160002060020180549050821061228f576040517f08c379a000000000000000000000000000000000000000000000000000000000815260040161228690613901565b60405180910390fd5b600260008473ffffffffffffffffffffffffffffffffffffffff1673ffffffffffffffffffffffffffffffffffffffff1681526020019081526020016000206002018281548110612309577f4e487b7100000000000000000000000000000000000000000000000000000000600052603260045260246000fd5b9060005260206000200160000160009054906101000a900473ffffffffffffffffffffffffffffffffffffffff16905092915050565b6000600260008473ffffffffffffffffffffffffffffffffffffffff1673ffffffffffffffffffffffffffffffffffffffff16815260200190815260200160002060040160009054906101000a900460ff166123d0576040517f08c379a00000000000000000000000000000000000000000000000000000000081526004016123c790613a61565b60405180910390fd5b60005b600260008573ffffffffffffffffffffffffffffffffffffffff1673ffffffffffffffffffffffffffffffffffffffff16815260200190815260200160002060020180549050811015612517578273ffffffffffffffffffffffffffffffffffffffff16600260008673ffffffffffffffffffffffffffffffffffffffff1673ffffffffffffffffffffffffffffffffffffffff16815260200190815260200160002060020182815481106124b1577f4e487b7100000000000000000000000000000000000000000000000000000000600052603260045260246000fd5b9060005260206000200160000160009054906101000a900473ffffffffffffffffffffffffffffffffffffffff1673ffffffffffffffffffffffffffffffffffffffff1614156125045780915050612553565b808061250f90613cf5565b9150506123d3565b506040517f08c379a000000000000000000000000000000000000000000000000000000000815260040161254a90613b01565b60405180910390fd5b92915050565b60606000805b600380549050811015612607576000600382815481106125a8577f4e487b7100000000000000000000000000000000000000000000000000000000600052603260045260246000fd5b9060005260206000200160009054906101000a900473ffffffffffffffffffffffffffffffffffffffff1690506125df81866127a7565b156125f35782806125ef90613cf5565b9350505b5080806125ff90613cf5565b91505061255f565b5060008167ffffffffffffffff81111561264a577f4e487b7100000000000000000000000000000000000000000000000000000000600052604160045260246000fd5b6040519080825280602002602001820160405280156126785781602001602082028036833780820191505090505b5090506000805b60038054905081101561279b576000600382815481106126c8577f4e487b7100000000000000000000000000000000000000000000000000000000600052603260045260246000fd5b9060005260206000200160009054906101000a900473ffffffffffffffffffffffffffffffffffffffff1690506126ff81886127a7565b15612787578084848151811061273e577f4e487b7100000000000000000000000000000000000000000000000000000000600052603260045260246000fd5b602002602001019073ffffffffffffffffffffffffffffffffffffffff16908173ffffffffffffffffffffffffffffffffffffffff1681525050828061278390613cf5565b9350505b50808061279390613cf5565b91505061267f565b50819350505050919050565b6000600260008473ffffffffffffffffffffffffffffffffffffffff1673ffffffffffffffffffffffffffffffffffffffff16815260200190815260200160002060040160009054906101000a900460ff166128065760009050612954565b60005b600260008573ffffffffffffffffffffffffffffffffffffffff1673ffffffffffffffffffffffffffffffffffffffff1681526020019081526020016000206002018054905081101561294e578273ffffffffffffffffffffffffffffffffffffffff16600260008673ffffffffffffffffffffffffffffffffffffffff1673ffffffffffffffffffffffffffffffffffffffff16815260200190815260200160002060020182815481106128e7577f4e487b7100000000000000000000000000000000000000000000000000000000600052603260045260246000fd5b9060005260206000200160000160009054906101000a900473ffffffffffffffffffffffffffffffffffffffff1673ffffffffffffffffffffffffffffffffffffffff16141561293b576001915050612954565b808061294690613cf5565b915050612809565b50600090505b92915050565b612962612a2d565b600073ffffffffffffffffffffffffffffffffffffffff168173ffffffffffffffffffffffffffffffffffffffff1614156129d2576040517f08c379a00000000000000000000000000000000000000000000000000000000081526004016129c9906138c1565b60405180910390fd5b6129db81612aab565b50565b6000600260008373ffffffffffffffffffffffffffffffffffffffff1673ffffffffffffffffffffffffffffffffffffffff168152602001908152602001600020600201805490509050919050565b612a35612ef8565b73ffffffffffffffffffffffffffffffffffffffff16612a5361124e565b73ffffffffffffffffffffffffffffffffffffffff1614612aa9576040517f08c379a0000000000000000000000000000000000000000000000000000000008152600401612aa0906139e1565b60405180910390fd5b565b6000600160009054906101000a900473ffffffffffffffffffffffffffffffffffffffff16905081600160006101000a81548173ffffffffffffffffffffffffffffffffffffffff021916908373ffffffffffffffffffffffffffffffffffffffff1602179055508173ffffffffffffffffffffffffffffffffffffffff168173ffffffffffffffffffffffffffffffffffffffff167f8be0079c531659141344cd1fd0a4f28419497f9722a3daafe3b4186f6b6457e060405160405180910390a35050565b60026000541415612bb7576040517f08c379a0000000000000000000000000000000000000000000000000000000008152600401612bae90613aa1565b60405180910390fd5b6002600081905550565b60004790506000805b600260008573ffffffffffffffffffffffffffffffffffffffff1673ffffffffffffffffffffffffffffffffffffffff16815260200190815260200160002060010180549050811015612cc357600260008573ffffffffffffffffffffffffffffffffffffffff1673ffffffffffffffffffffffffffffffffffffffff1681526020019081526020016000206001018181548110612c91577f4e487b7100000000000000000000000000000000000000000000000000000000600052603260045260246000fd5b90600052602060002090600302016001015482612cae9190613b86565b91508080612cbb90613cf5565b915050612bca565b5060005b600260008573ffffffffffffffffffffffffffffffffffffffff1673ffffffffffffffffffffffffffffffffffffffff16815260200190815260200160002060010180549050811015612ea5576000600260008673ffffffffffffffffffffffffffffffffffffffff1673ffffffffffffffffffffffffffffffffffffffff1681526020019081526020016000206001018281548110612d90577f4e487b7100000000000000000000000000000000000000000000000000000000600052603260045260246000fd5b90600052602060002090600302016040518060600160405290816000820160009054906101000a900473ffffffffffffffffffffffffffffffffffffffff1673ffffffffffffffffffffffffffffffffffffffff1673ffffffffffffffffffffffffffffffffffffffff168152602001600182015481526020016002820160009054906101000a900460ff1615151515815250509050600083826020015186612e399190613c0d565b612e439190613bdc565b9050816000015173ffffffffffffffffffffffffffffffffffffffff166108fc829081150290604051600060405180830381858888f19350505050158015612e8f573d6000803e3d6000fd5b5050508080612e9d90613cf5565b915050612cc7565b508273ffffffffffffffffffffffffffffffffffffffff167fe22111dd7904e8aca32090f5631e0ca476ced5e3081ccb9528640ae57f46880d60405160405180910390a2505050565b6001600081905550565b600033905090565b5080546000825560030290600052602060002090810190612f219190612f45565b50565b5080546000825590600052602060002090810190612f429190612f9f565b50565b5b80821115612f9b57600080820160006101000a81549073ffffffffffffffffffffffffffffffffffffffff021916905560018201600090556002820160006101000a81549060ff021916905550600301612f46565b5090565b5b8082111561300157600080820160006101000a81549073ffffffffffffffffffffffffffffffffffffffff02191690556000820160146101000a81549060ff02191690556000820160156101000a81549060ff021916905550600101612fa0565b5090565b60008135905061301481613d9c565b92915050565b60008135905061302981613db3565b92915050565b60006020828403121561304157600080fd5b600061304f84828501613005565b91505092915050565b6000806040838503121561306b57600080fd5b600061307985828601613005565b925050602061308a85828601613005565b9150509250929050565b600080604083850312156130a757600080fd5b60006130b585828601613005565b92505060206130c68582860161301a565b9150509250929050565b6000602082840312156130e257600080fd5b60006130f08482850161301a565b91505092915050565b60006131058383613111565b60208301905092915050565b61311a81613c9b565b82525050565b61312981613c9b565b82525050565b600061313a82613b4c565b6131448185613b64565b935061314f83613b3c565b8060005b8381101561318057815161316788826130f9565b975061317283613b57565b925050600181019050613153565b5085935050505092915050565b61319681613cad565b82525050565b6131a581613ce3565b82525050565b60006131b8601b83613b75565b91507f496e76616c69642062656e6566696369617279206164647265737300000000006000830152602082019050919050565b60006131f8601983613b75565b91507f4f776e65722063616e6e6f742062652076616c696461746f72000000000000006000830152602082019050919050565b6000613238602683613b75565b91507f4f776e61626c653a206e6577206f776e657220697320746865207a65726f206160008301527f64647265737300000000000000000000000000000000000000000000000000006020830152604082019050919050565b600061329e601983613b75565b91507f496e76616c69642076616c696461746f722061646472657373000000000000006000830152602082019050919050565b60006132de600d83613b75565b91507f496e76616c696420696e646578000000000000000000000000000000000000006000830152602082019050919050565b600061331e603483613b75565b91507f526571756972656420636f6e6669726d6174696f6e732063616e6e6f7420657860008301527f636565642076616c696461746f7220636f756e740000000000000000000000006020830152604082019050919050565b6000613384601c83613b75565b91507f5368617265206d7573742062652067726561746572207468616e2030000000006000830152602082019050919050565b60006133c4602683613b75565b91507f43616e6e6f742063616e63656c20616674657220646561746820636f6e66697260008301527f6d6174696f6e00000000000000000000000000000000000000000000000000006020830152604082019050919050565b600061342a601783613b75565b91507f496e6865726974616e6365206e6f7420637265617465640000000000000000006000830152602082019050919050565b600061346a601983613b75565b91507f43616c6c6572206973206e6f7420612076616c696461746f72000000000000006000830152602082019050919050565b60006134aa601a83613b75565b91507f496e6865726974616e636520616c7265616479206578697374730000000000006000830152602082019050919050565b60006134ea602083613b75565b91507f4f776e61626c653a2063616c6c6572206973206e6f7420746865206f776e65726000830152602082019050919050565b600061352a601783613b75565b91507f446561746820616c726561647920636f6e6669726d65640000000000000000006000830152602082019050919050565b600061356a602d83613b75565b91507f526571756972656420636f6e6669726d6174696f6e73206d757374206265206760008301527f726561746572207468616e2030000000000000000000000000000000000000006020830152604082019050919050565b60006135d0601683613b75565b91507f4f776e6572206973206465636c617265642064656164000000000000000000006000830152602082019050919050565b6000613610601583613b75565b91507f496e6865726974616e6365206e6f7420666f756e6400000000000000000000006000830152602082019050919050565b6000613650601583613b75565b91507f4e6f7420696e6865726974616e6365206f776e657200000000000000000000006000830152602082019050919050565b6000613690601f83613b75565b91507f5265656e7472616e637947756172643a207265656e7472616e742063616c6c006000830152602082019050919050565b60006136d0601883613b75565b91507f56616c696461746f7220616c72656164792065786973747300000000000000006000830152602082019050919050565b6000613710601183613b75565b91507f416c726561647920636f6e6669726d65640000000000000000000000000000006000830152602082019050919050565b6000613750601383613b75565b91507f56616c696461746f72206e6f7420666f756e64000000000000000000000000006000830152602082019050919050565b61378c81613cd9565b82525050565b60006020820190506137a76000830184613120565b92915050565b60006040820190506137c26000830185613120565b6137cf6020830184613783565b9392505050565b600060a0820190506137eb6000830188613120565b6137f86020830187613783565b613805604083018661318d565b613812606083018561318d565b61381f6080830184613783565b9695505050505050565b60006020820190508181036000830152613843818461312f565b905092915050565b6000602082019050613860600083018461318d565b92915050565b600060208201905061387b600083018461319c565b92915050565b6000602082019050818103600083015261389a816131ab565b9050919050565b600060208201905081810360008301526138ba816131eb565b9050919050565b600060208201905081810360008301526138da8161322b565b9050919050565b600060208201905081810360008301526138fa81613291565b9050919050565b6000602082019050818103600083015261391a816132d1565b9050919050565b6000602082019050818103600083015261393a81613311565b9050919050565b6000602082019050818103600083015261395a81613377565b9050919050565b6000602082019050818103600083015261397a816133b7565b9050919050565b6000602082019050818103600083015261399a8161341d565b9050919050565b600060208201905081810360008301526139ba8161345d565b9050919050565b600060208201905081810360008301526139da8161349d565b9050919050565b600060208201905081810360008301526139fa816134dd565b9050919050565b60006020820190508181036000830152613a1a8161351d565b9050919050565b60006020820190508181036000830152613a3a8161355d565b9050919050565b60006020820190508181036000830152613a5a816135c3565b9050919050565b60006020820190508181036000830152613a7a81613603565b9050919050565b60006020820190508181036000830152613a9a81613643565b9050919050565b60006020820190508181036000830152613aba81613683565b9050919050565b60006020820190508181036000830152613ada816136c3565b9050919050565b60006020820190508181036000830152613afa81613703565b9050919050565b60006020820190508181036000830152613b1a81613743565b9050919050565b6000602082019050613b366000830184613783565b92915050565b6000819050602082019050919050565b600081519050919050565b6000602082019050919050565b600082825260208201905092915050565b600082825260208201905092915050565b6000613b9182613cd9565b9150613b9c83613cd9565b9250827fffffffffffffffffffffffffffffffffffffffffffffffffffffffffffffffff03821115613bd157613bd0613d3e565b5b828201905092915050565b6000613be782613cd9565b9150613bf283613cd9565b925082613c0257613c01613d6d565b5b828204905092915050565b6000613c1882613cd9565b9150613c2383613cd9565b9250817fffffffffffffffffffffffffffffffffffffffffffffffffffffffffffffffff0483118215151615613c5c57613c5b613d3e565b5b828202905092915050565b6000613c7282613cd9565b9150613c7d83613cd9565b925082821015613c9057613c8f613d3e565b5b828203905092915050565b6000613ca682613cb9565b9050919050565b60008115159050919050565b600073ffffffffffffffffffffffffffffffffffffffff82169050919050565b6000819050919050565b6000613cee82613cd9565b9050919050565b6000613d0082613cd9565b91507fffffffffffffffffffffffffffffffffffffffffffffffffffffffffffffffff821415613d3357613d32613d3e565b5b600182019050919050565b7f4e487b7100000000000000000000000000000000000000000000000000000000600052601160045260246000fd5b7f4e487b7100000000000000000000000000000000000000000000000000000000600052601260045260246000fd5b613da581613c9b565b8114613db057600080fd5b50565b613dbc81613cd9565b8114613dc757600080fd5b5056fea2646970667358221220933179f3d0759b8be0bb7c924aef0635001efcc2e2f12b0b7ef1c44a42f735cd64736f6c63430008000033",
  "linkReferences": {},
  "deployedLinkReferences": {}
}