{
  "_format": "hh-sol-artifact-1",
  "contractName": "InheritanceManager",
  "sourceName": "contracts/InheritanceManager.sol",
  "abi": [
    {
      "anonymous": false,
      "inputs": [
        {
          "indexed": true,
          "internalType": "address",
          "name": "owner",
          "type": "address"
        },
        {
          "indexed": true,
          "internalType": "address",
          "name": "beneficiary",
          "type": "address"
        },
        {
          "indexed": false,
          "internalType": "uint256",
          "name": "share",
          "type": "uint256"
        }
      ],
      "name": "BeneficiaryAdded",
      "type": "event"
    },
    {
      "anonymous": false,
      "inputs": [
        {
          "indexed": true,
          "internalType": "address",
          "name": "owner",
          "type": "address"
        },
        {
          "indexed": true,
          "internalType": "address",
          "name": "validator",
          "type": "address"
        },
        {
          "indexed": false,
          "internalType": "uint256",
          "name": "confirmationCount",
          "type": "uint256"
        }
      ],
      "name": "DeathConfirmed",
      "type": "event"
    },
    {
      "anonymous": false,
      "inputs": [
        {
          "indexed": true,
          "internalType": "address",
          "name": "owner",
          "type": "address"
        }
      ],
      "name": "InheritanceCreated",
      "type": "event"
    },
    {
      "anonymous": false,
      "inputs": [
        {
          "indexed": true,
          "internalType": "address",
          "name": "owner",
          "type": "address"
        }
      ],
      "name": "InheritanceDistributed",
      "type": "event"
    },
    {
      "anonymous": false,
      "inputs": [
        {
          "indexed": true,
          "internalType": "address",
          "name": "owner",
          "type": "address"
        },
        {
          "indexed": true,
          "internalType": "address",
          "name": "validator",
          "type": "address"
        }
      ],
      "name": "ValidatorAdded",
      "type": "event"
    },
    {
      "inputs": [
        {
          "internalType": "address",
          "name": "beneficiaryAddress",
          "type": "address"
        },
        {
          "internalType": "uint256",
          "name": "share",
          "type": "uint256"
        }
      ],
      "name": "addBeneficiary",
      "outputs": [],
      "stateMutability": "nonpayable",
      "type": "function"
    },
    {
      "inputs": [
        {
          "internalType": "address",
          "name": "validatorAddress",
          "type": "address"
        }
      ],
      "name": "addValidator",
      "outputs": [],
      "stateMutability": "nonpayable",
      "type": "function"
    },
    {
      "inputs": [
        {
          "internalType": "uint256",
          "name": "",
          "type": "uint256"
        }
      ],
      "name": "allInheritances",
      "outputs": [
        {
          "internalType": "address",
          "name": "",
          "type": "address"
        }
      ],
      "stateMutability": "view",
      "type": "function"
    },
    {
      "inputs": [
        {
          "internalType": "address",
          "name": "owner",
          "type": "address"
        }
      ],
      "name": "confirmDeath",
      "outputs": [],
      "stateMutability": "nonpayable",
      "type": "function"
    },
    {
      "inputs": [],
      "name": "createInheritance",
      "outputs": [],
      "stateMutability": "nonpayable",
      "type": "function"
    },
    {
      "inputs": [
        {
          "internalType": "address",
          "name": "owner",
          "type": "address"
        },
        {
          "internalType": "uint256",
          "name": "index",
          "type": "uint256"
        }
      ],
      "name": "getBeneficiary",
      "outputs": [
        {
          "internalType": "address",
          "name": "wallet",
          "type": "address"
        },
        {
          "internalType": "uint256",
          "name": "share",
          "type": "uint256"
        }
      ],
      "stateMutability": "view",
      "type": "function"
    },
    {
      "inputs": [
        {
          "internalType": "address",
          "name": "owner",
          "type": "address"
        }
      ],
      "name": "getBeneficiaryCount",
      "outputs": [
        {
          "internalType": "uint256",
          "name": "",
          "type": "uint256"
        }
      ],
      "stateMutability": "view",
      "type": "function"
    },
    {
      "inputs": [
        {
          "internalType": "address",
          "name": "owner",
          "type": "address"
        }
      ],
      "name": "getInheritanceStatus",
      "outputs": [
        {
          "internalType": "bool",
          "name": "isActive",
          "type": "bool"
        },
        {
          "internalType": "bool",
          "name": "isDead",
          "type": "bool"
        },
        {
          "internalType": "uint256",
          "name": "confirmationCount",
          "type": "uint256"
        },
        {
          "internalType": "uint256",
          "name": "requiredConfirmations",
          "type": "uint256"
        },
        {
          "internalType": "bool",
          "name": "distributed",
          "type": "bool"
        }
      ],
      "stateMutability": "view",
      "type": "function"
    },
    {
      "inputs": [
        {
          "internalType": "address",
          "name": "owner",
          "type": "address"
        },
        {
          "internalType": "uint256",
          "name": "index",
          "type": "uint256"
        }
      ],
      "name": "getValidator",
      "outputs": [
        {
          "internalType": "address",
          "name": "",
          "type": "address"
        }
      ],
      "stateMutability": "view",
      "type": "function"
    },
    {
      "inputs": [
        {
          "internalType": "address",
          "name": "owner",
          "type": "address"
        },
        {
          "internalType": "uint256",
          "name": "index",
          "type": "uint256"
        }
      ],
      "name": "getValidatorConfirmation",
      "outputs": [
        {
          "internalType": "bool",
          "name": "",
          "type": "bool"
        }
      ],
      "stateMutability": "view",
      "type": "function"
    },
    {
      "inputs": [
        {
          "internalType": "address",
          "name": "owner",
          "type": "address"
        }
      ],
      "name": "getValidatorCount",
      "outputs": [
        {
          "internalType": "uint256",
          "name": "",
          "type": "uint256"
        }
      ],
      "stateMutability": "view",
      "type": "function"
    },
    {
      "inputs": [
        {
          "internalType": "address",
          "name": "owner",
          "type": "address"
        },
        {
          "internalType": "address",
          "name": "validator",
          "type": "address"
        }
      ],
      "name": "getValidatorIndex",
      "outputs": [
        {
          "internalType": "uint256",
          "name": "",
          "type": "uint256"
        }
      ],
      "stateMutability": "view",
      "type": "function"
    },
    {
      "inputs": [
        {
          "internalType": "address",
          "name": "validator",
          "type": "address"
        }
      ],
      "name": "getValidatorInheritances",
      "outputs": [
        {
          "internalType": "address[]",
          "name": "",
          "type": "address[]"
        }
      ],
      "stateMutability": "view",
      "type": "function"
    },
    {
      "inputs": [
        {
          "internalType": "address",
          "name": "",
          "type": "address"
        }
      ],
      "name": "inheritances",
      "outputs": [
        {
          "internalType": "bool",
          "name": "isActive",
          "type": "bool"
        },
        {
          "internalType": "bool",
          "name": "isDead",
          "type": "bool"
        },
        {
          "internalType": "uint256",
          "name": "confirmationCount",
          "type": "uint256"
        },
        {
          "internalType": "uint256",
          "name": "requiredConfirmations",
          "type": "uint256"
        },
        {
          "internalType": "uint256",
          "name": "beneficiaryCount",
          "type": "uint256"
        },
        {
          "internalType": "uint256",
          "name": "validatorCount",
          "type": "uint256"
        },
        {
          "internalType": "uint256",
          "name": "totalShares",
          "type": "uint256"
        },
        {
          "internalType": "bool",
          "name": "distributed",
          "type": "bool"
        }
      ],
      "stateMutability": "view",
      "type": "function"
    },
    {
      "inputs": [
        {
          "internalType": "address",
          "name": "owner",
          "type": "address"
        },
        {
          "internalType": "address",
          "name": "validator",
          "type": "address"
        }
      ],
      "name": "isValidator",
      "outputs": [
        {
          "internalType": "bool",
          "name": "",
          "type": "bool"
        }
      ],
      "stateMutability": "view",
      "type": "function"
    },
    {
      "stateMutability": "payable",
      "type": "receive"
    }
  ],
  "bytecode": "0x608060405234801561001057600080fd5b50611661806100206000396000f3fe6080604052600436106100ec5760003560e01c806378bfecaf1161008a578063af43715f11610059578063af43715f146103a5578063b5018db7146103c5578063e5a489a7146103f2578063f9560e451461041257600080fd5b806378bfecaf1461031557806396074e7014610345578063aab7c6d714610365578063ad81907a1461038557600080fd5b80632423c7f3116100c65780632423c7f31461018b57806349d1a060146101d25780634d238c8e146102585780636122fed51461027857600080fd5b80630a6cef46146100f857806315889d991461013c57806319b699f21461015357600080fd5b366100f357005b600080fd5b34801561010457600080fd5b50610118610113366004611437565b61044b565b604080516001600160a01b0390931683526020830191909152015b60405180910390f35b34801561014857600080fd5b506101516104c4565b005b34801561015f57600080fd5b5061017361016e366004611461565b6105d7565b6040516001600160a01b039091168152602001610133565b34801561019757600080fd5b506101c46101a636600461147a565b6001600160a01b031660009081526020819052604090206004015490565b604051908152602001610133565b3480156101de57600080fd5b5061022c6101ed36600461147a565b6001600160a01b0316600090815260208190526040902080546001820154600283015460089093015460ff808416956101009094048116949293911690565b60408051951515865293151560208601529284019190915260608301521515608082015260a001610133565b34801561026457600080fd5b5061015161027336600461147a565b610601565b34801561028457600080fd5b506102d661029336600461147a565b600060208190529081526040902080546001820154600283015460048401546006850154600786015460089096015460ff80871697610100909704811696911688565b6040805198151589529615156020890152958701949094526060860192909252608085015260a084015260c0830152151560e082015261010001610133565b34801561032157600080fd5b50610335610330366004611437565b610873565b6040519015158152602001610133565b34801561035157600080fd5b50610151610360366004611437565b6108e4565b34801561037157600080fd5b5061015161038036600461147a565b610b6f565b34801561039157600080fd5b506101736103a0366004611437565b610e9c565b3480156103b157600080fd5b506101c46103c036600461149c565b610f01565b3480156103d157600080fd5b506103e56103e036600461147a565b61100f565b60405161013391906114cf565b3480156103fe57600080fd5b5061033561040d36600461149c565b611162565b34801561041e57600080fd5b506101c461042d36600461147a565b6001600160a01b031660009081526020819052604090206006015490565b6001600160a01b038216600090815260208190526040812060040154819083106104905760405162461bcd60e51b81526004016104879061151c565b60405180910390fd5b50506001600160a01b0391821660009081526020818152604080832093835260039093019052208054600190910154911691565b3360009081526020819052604090205460ff16156105245760405162461bcd60e51b815260206004820152601a60248201527f496e6865726974616e636520616c7265616479206578697374730000000000006044820152606401610487565b33600081815260208190526040808220805461ffff1916600190811782558082018490556002820181905560048201849055600682018490556007820184905560088201805460ff19169055805480820182559084527fb10e2d527612073b26eecdfd717e6a320cf44b4afac2b0732d9fcbe2b7fa0cf60180546001600160a01b0319168517905590519092917fa887cc0c83620039f5804b762d01b310e2dedc32d3c9111412280cd541d5a77391a250565b600181815481106105e757600080fd5b6000918252602090912001546001600160a01b0316905081565b3360008181526020819052604090205460ff166106305760405162461bcd60e51b815260040161048790611543565b6001600160a01b0382166106865760405162461bcd60e51b815260206004820152601960248201527f496e76616c69642076616c696461746f722061646472657373000000000000006044820152606401610487565b33600090815260208190526040902054610100900460ff16156106db5760405162461bcd60e51b815260206004820152600d60248201526c13dddb995c881a5cc819195859609a1b6044820152606401610487565b60005b3360009081526020819052604090206006015481101561078057336000908152602081815260408083208484526005019091529020546001600160a01b0380851691160361076e5760405162461bcd60e51b815260206004820152601860248201527f56616c696461746f7220616c72656164792065786973747300000000000000006044820152606401610487565b806107788161159a565b9150506106de565b5033600081815260208181526040808320600681018054835180850185526001600160a01b038a81168252818701888152838952600590950187529487209051815494511515600160a01b026001600160a81b031990951695169490941792909217909255938352908290528054916107f88361159a565b9091555050336000908152602081905260409020600281015460069091015410156108385733600090815260208190526040902060068101546002909101555b6040516001600160a01b0384169033907f8064a302796c89446a96d63470b5b036212da26bd2debe5bec73e0170a9a5e8390600090a3505050565b6001600160a01b03821660009081526020819052604081206006015482106108ad5760405162461bcd60e51b81526004016104879061151c565b506001600160a01b038216600090815260208181526040808320848452600501909152902054600160a01b900460ff165b92915050565b3360008181526020819052604090205460ff166109135760405162461bcd60e51b815260040161048790611543565b6001600160a01b0383166109695760405162461bcd60e51b815260206004820152601b60248201527f496e76616c69642062656e6566696369617279206164647265737300000000006044820152606401610487565b60008211801561097b57506127108211155b6109c75760405162461bcd60e51b815260206004820152601860248201527f496e76616c69642073686172652070657263656e7461676500000000000000006044820152606401610487565b33600090815260208190526040902060070154612710906109e99084906115b3565b1115610a375760405162461bcd60e51b815260206004820152601f60248201527f546f74616c207368617265732063616e6e6f74206578636565642031303025006044820152606401610487565b33600090815260208190526040902054610100900460ff1615610a8c5760405162461bcd60e51b815260206004820152600d60248201526c13dddb995c881a5cc819195859609a1b6044820152606401610487565b33600081815260208181526040808320600481018054835180850185526001600160a01b038b811682528187018b815283895260039095018752948720905181546001600160a01b0319169516949094178455915160019093019290925593835290829052805491610afd8361159a565b90915550503360009081526020819052604081206007018054859290610b249084906115b3565b90915550506040518381526001600160a01b0385169033907f5d081d791b64899adab031015397ef8d7600501212ef97573b9e50f8c9bb6d9b9060200160405180910390a350505050565b6001600160a01b038116600090815260208190526040902054819060ff16610ba95760405162461bcd60e51b815260040161048790611543565b6001600160a01b038216600090815260208190526040902054610100900460ff1615610c175760405162461bcd60e51b815260206004820152601760248201527f446561746820616c726561647920636f6e6669726d65640000000000000000006044820152606401610487565b6001600160a01b038216600090815260208190526040902060040154610c785760405162461bcd60e51b8152602060048201526016602482015275139bc818995b99599a58da585c9a595cc8185919195960521b6044820152606401610487565b600080805b6001600160a01b038516600090815260208190526040902060060154811015610cec576001600160a01b0385811660009081526020818152604080832085845260050190915290205433911603610cda5780925060019150610cec565b80610ce48161159a565b915050610c7d565b5080610d2c5760405162461bcd60e51b815260206004820152600f60248201526e2737ba1030903b30b634b230ba37b960891b6044820152606401610487565b6001600160a01b038416600090815260208181526040808320858452600501909152902054600160a01b900460ff1615610d9c5760405162461bcd60e51b8152602060048201526011602482015270105b1c9958591e4818dbdb999a5c9b5959607a1b6044820152606401610487565b6001600160a01b038416600081815260208181526040808320868452600581018352908320805460ff60a01b1916600160a01b179055928252819052600191909101805491610dea8361159a565b90915550506001600160a01b038416600081815260208181526040918290206001015491519182523392917f8af56bba0af6fb33e99284318ba113350ec3f9424b6263a8b01b6e00fb2651ea910160405180910390a36001600160a01b0384166000908152602081905260409020600281015460019091015410610e96576001600160a01b0384166000908152602081905260409020805461ff001916610100179055610e9684611206565b50505050565b6001600160a01b0382166000908152602081905260408120600601548210610ed65760405162461bcd60e51b81526004016104879061151c565b506001600160a01b039182166000908152602081815260408083209383526005909301905220541690565b6001600160a01b03821660009081526020819052604081205460ff16610f615760405162461bcd60e51b8152602060048201526015602482015274125b9a195c9a5d185b98d9481b9bdd08199bdd5b99605a1b6044820152606401610487565b60005b6001600160a01b038416600090815260208190526040902060060154811015610fd0576001600160a01b03848116600090815260208181526040808320858452600501909152902054818516911603610fbe5790506108de565b80610fc88161159a565b915050610f64565b5060405162461bcd60e51b815260206004820152601360248201527215985b1a59185d1bdc881b9bdd08199bdd5b99606a1b6044820152606401610487565b60606000805b60015481101561107b57600060018281548110611034576110346115c6565b6000918252602090912001546001600160a01b031690506110558186611162565b1561106857826110648161159a565b9350505b50806110738161159a565b915050611015565b5060008167ffffffffffffffff811115611097576110976115dc565b6040519080825280602002602001820160405280156110c0578160200160208202803683370190505b5090506000805b600154811015611158576000600182815481106110e6576110e66115c6565b6000918252602090912001546001600160a01b031690506111078188611162565b15611145578084848151811061111f5761111f6115c6565b6001600160a01b0390921660209283029190910190910152826111418161159a565b9350505b50806111508161159a565b9150506110c7565b5090949350505050565b6001600160a01b03821660009081526020819052604081205460ff1661118a575060006108de565b60005b6001600160a01b0384166000908152602081905260409020600601548110156111fc576001600160a01b038481166000908152602081815260408083208584526005019091529020548185169116036111ea5760019150506108de565b806111f48161159a565b91505061118d565b5060009392505050565b6001600160a01b03811660009081526020819052604090206008015460ff16156112685760405162461bcd60e51b8152602060048201526013602482015272105b1c9958591e48191a5cdd1c9a589d5d1959606a1b6044820152606401610487565b47806112af5760405162461bcd60e51b81526020600482015260166024820152754e6f2066756e647320746f206469737472696275746560501b6044820152606401610487565b60005b6001600160a01b0383166000908152602081905260409020600401548110156113ca576001600160a01b03838116600090815260208181526040808320858452600301909152812080546001909101549216916127109061131390866115f2565b61131d9190611609565b90506000826001600160a01b03168260405160006040518083038185875af1925050503d806000811461136c576040519150601f19603f3d011682016040523d82523d6000602084013e611371565b606091505b50509050806113b45760405162461bcd60e51b815260206004820152600f60248201526e151c985b9cd9995c8819985a5b1959608a1b6044820152606401610487565b50505080806113c29061159a565b9150506112b2565b506001600160a01b038216600081815260208190526040808220600801805460ff19166001179055517fe22111dd7904e8aca32090f5631e0ca476ced5e3081ccb9528640ae57f46880d9190a25050565b80356001600160a01b038116811461143257600080fd5b919050565b6000806040838503121561144a57600080fd5b6114538361141b565b946020939093013593505050565b60006020828403121561147357600080fd5b5035919050565b60006020828403121561148c57600080fd5b6114958261141b565b9392505050565b600080604083850312156114af57600080fd5b6114b88361141b565b91506114c66020840161141b565b90509250929050565b6020808252825182820181905260009190848201906040850190845b818110156115105783516001600160a01b0316835292840192918401916001016114eb565b50909695505050505050565b6020808252600d908201526c092dcecc2d8d2c840d2dcc8caf609b1b604082015260600190565b60208082526021908201527f496e6865726974616e6365206e6f7420666f756e64206f7220696e61637469766040820152606560f81b606082015260800190565b634e487b7160e01b600052601160045260246000fd5b6000600182016115ac576115ac611584565b5060010190565b808201808211156108de576108de611584565b634e487b7160e01b600052603260045260246000fd5b634e487b7160e01b600052604160045260246000fd5b80820281158282048414176108de576108de611584565b60008261162657634e487b7160e01b600052601260045260246000fd5b50049056fea26469706673582212205255f1a58d36b417a0923f201135ba1cf623782961bd4d8f61e64729b7e7f61e64736f6c63430008130033",
  "linkReferences": {},
  "deployedLinkReferences": {}
}