{
  "_format": "hh-sol-artifact-1",
  "contractName": "InheritanceManager",
  "sourceName": "contracts/InheritanceManager.sol",
  "abi": [
    {
      "anonymous": false,
      "inputs": [
        {
          "indexed": true,
          "internalType": "address",
          "name": "owner",
          "type": "address"
        },
        {
          "indexed": true,
          "internalType": "address",
          "name": "beneficiary",
          "type": "address"
        },
        {
          "indexed": false,
          "internalType": "uint256",
          "name": "amount",
          "type": "uint256"
        }
      ],
      "name": "BeneficiaryAdded",
      "type": "event"
    },
    {
      "anonymous": false,
      "inputs": [
        {
          "indexed": true,
          "internalType": "address",
          "name": "owner",
          "type": "address"
        },
        {
          "indexed": true,
          "internalType": "address",
          "name": "validator",
          "type": "address"
        },
        {
          "indexed": false,
          "internalType": "uint256",
          "name": "confirmationCount",
          "type": "uint256"
        }
      ],
      "name": "DeathConfirmed",
      "type": "event"
    },
    {
      "anonymous": false,
      "inputs": [
        {
          "indexed": true,
          "internalType": "address",
          "name": "owner",
          "type": "address"
        }
      ],
      "name": "InheritanceCreated",
      "type": "event"
    },
    {
      "anonymous": false,
      "inputs": [
        {
          "indexed": true,
          "internalType": "address",
          "name": "owner",
          "type": "address"
        }
      ],
      "name": "InheritanceDistributed",
      "type": "event"
    },
    {
      "anonymous": false,
      "inputs": [
        {
          "indexed": true,
          "internalType": "address",
          "name": "owner",
          "type": "address"
        },
        {
          "indexed": true,
          "internalType": "address",
          "name": "validator",
          "type": "address"
        }
      ],
      "name": "ValidatorAdded",
      "type": "event"
    },
    {
      "inputs": [
        {
          "internalType": "address",
          "name": "beneficiaryAddress",
          "type": "address"
        },
        {
          "internalType": "uint256",
          "name": "amount",
          "type": "uint256"
        }
      ],
      "name": "addBeneficiary",
      "outputs": [],
      "stateMutability": "payable",
      "type": "function"
    },
    {
      "inputs": [
        {
          "internalType": "address",
          "name": "validatorAddress",
          "type": "address"
        }
      ],
      "name": "addValidator",
      "outputs": [],
      "stateMutability": "nonpayable",
      "type": "function"
    },
    {
      "inputs": [
        {
          "internalType": "uint256",
          "name": "",
          "type": "uint256"
        }
      ],
      "name": "allInheritances",
      "outputs": [
        {
          "internalType": "address",
          "name": "",
          "type": "address"
        }
      ],
      "stateMutability": "view",
      "type": "function"
    },
    {
      "inputs": [
        {
          "internalType": "address",
          "name": "owner",
          "type": "address"
        }
      ],
      "name": "confirmDeath",
      "outputs": [],
      "stateMutability": "nonpayable",
      "type": "function"
    },
    {
      "inputs": [],
      "name": "createInheritance",
      "outputs": [],
      "stateMutability": "nonpayable",
      "type": "function"
    },
    {
      "inputs": [
        {
          "internalType": "address",
          "name": "owner",
          "type": "address"
        },
        {
          "internalType": "uint256",
          "name": "index",
          "type": "uint256"
        }
      ],
      "name": "getBeneficiary",
      "outputs": [
        {
          "internalType": "address",
          "name": "wallet",
          "type": "address"
        },
        {
          "internalType": "uint256",
          "name": "amount",
          "type": "uint256"
        }
      ],
      "stateMutability": "view",
      "type": "function"
    },
    {
      "inputs": [
        {
          "internalType": "address",
          "name": "owner",
          "type": "address"
        }
      ],
      "name": "getBeneficiaryCount",
      "outputs": [
        {
          "internalType": "uint256",
          "name": "",
          "type": "uint256"
        }
      ],
      "stateMutability": "view",
      "type": "function"
    },
    {
      "inputs": [],
      "name": "getInheritanceBalance",
      "outputs": [
        {
          "internalType": "uint256",
          "name": "",
          "type": "uint256"
        }
      ],
      "stateMutability": "view",
      "type": "function"
    },
    {
      "inputs": [],
      "name": "getInheritanceDetails",
      "outputs": [
        {
          "internalType": "bool",
          "name": "isActive",
          "type": "bool"
        },
        {
          "internalType": "uint256",
          "name": "totalShares",
          "type": "uint256"
        },
        {
          "internalType": "uint256",
          "name": "totalAmount",
          "type": "uint256"
        },
        {
          "internalType": "uint256",
          "name": "currentBalance",
          "type": "uint256"
        }
      ],
      "stateMutability": "view",
      "type": "function"
    },
    {
      "inputs": [
        {
          "internalType": "address",
          "name": "owner",
          "type": "address"
        }
      ],
      "name": "getInheritanceStatus",
      "outputs": [
        {
          "internalType": "bool",
          "name": "isActive",
          "type": "bool"
        },
        {
          "internalType": "bool",
          "name": "isDead",
          "type": "bool"
        },
        {
          "internalType": "uint256",
          "name": "confirmationCount",
          "type": "uint256"
        },
        {
          "internalType": "uint256",
          "name": "requiredConfirmations",
          "type": "uint256"
        },
        {
          "internalType": "bool",
          "name": "distributed",
          "type": "bool"
        }
      ],
      "stateMutability": "view",
      "type": "function"
    },
    {
      "inputs": [
        {
          "internalType": "address",
          "name": "owner",
          "type": "address"
        },
        {
          "internalType": "uint256",
          "name": "index",
          "type": "uint256"
        }
      ],
      "name": "getValidator",
      "outputs": [
        {
          "internalType": "address",
          "name": "",
          "type": "address"
        }
      ],
      "stateMutability": "view",
      "type": "function"
    },
    {
      "inputs": [
        {
          "internalType": "address",
          "name": "owner",
          "type": "address"
        },
        {
          "internalType": "uint256",
          "name": "index",
          "type": "uint256"
        }
      ],
      "name": "getValidatorConfirmation",
      "outputs": [
        {
          "internalType": "bool",
          "name": "",
          "type": "bool"
        }
      ],
      "stateMutability": "view",
      "type": "function"
    },
    {
      "inputs": [
        {
          "internalType": "address",
          "name": "owner",
          "type": "address"
        }
      ],
      "name": "getValidatorConfirmations",
      "outputs": [
        {
          "internalType": "uint256",
          "name": "totalValidators",
          "type": "uint256"
        },
        {
          "internalType": "uint256",
          "name": "confirmedCount",
          "type": "uint256"
        },
        {
          "internalType": "uint256",
          "name": "requiredConfirmations",
          "type": "uint256"
        }
      ],
      "stateMutability": "view",
      "type": "function"
    },
    {
      "inputs": [
        {
          "internalType": "address",
          "name": "owner",
          "type": "address"
        }
      ],
      "name": "getValidatorCount",
      "outputs": [
        {
          "internalType": "uint256",
          "name": "",
          "type": "uint256"
        }
      ],
      "stateMutability": "view",
      "type": "function"
    },
    {
      "inputs": [
        {
          "internalType": "address",
          "name": "owner",
          "type": "address"
        },
        {
          "internalType": "address",
          "name": "validator",
          "type": "address"
        }
      ],
      "name": "getValidatorIndex",
      "outputs": [
        {
          "internalType": "uint256",
          "name": "",
          "type": "uint256"
        }
      ],
      "stateMutability": "view",
      "type": "function"
    },
    {
      "inputs": [
        {
          "internalType": "address",
          "name": "validator",
          "type": "address"
        }
      ],
      "name": "getValidatorInheritances",
      "outputs": [
        {
          "internalType": "address[]",
          "name": "",
          "type": "address[]"
        }
      ],
      "stateMutability": "view",
      "type": "function"
    },
    {
      "inputs": [
        {
          "internalType": "address",
          "name": "",
          "type": "address"
        }
      ],
      "name": "inheritances",
      "outputs": [
        {
          "internalType": "bool",
          "name": "isActive",
          "type": "bool"
        },
        {
          "internalType": "bool",
          "name": "isDead",
          "type": "bool"
        },
        {
          "internalType": "uint256",
          "name": "confirmationCount",
          "type": "uint256"
        },
        {
          "internalType": "uint256",
          "name": "requiredConfirmations",
          "type": "uint256"
        },
        {
          "internalType": "uint256",
          "name": "beneficiaryCount",
          "type": "uint256"
        },
        {
          "internalType": "uint256",
          "name": "validatorCount",
          "type": "uint256"
        },
        {
          "internalType": "uint256",
          "name": "totalShares",
          "type": "uint256"
        },
        {
          "internalType": "bool",
          "name": "distributed",
          "type": "bool"
        },
        {
          "internalType": "uint256",
          "name": "totalAmount",
          "type": "uint256"
        }
      ],
      "stateMutability": "view",
      "type": "function"
    },
    {
      "inputs": [
        {
          "internalType": "address",
          "name": "owner",
          "type": "address"
        },
        {
          "internalType": "address",
          "name": "validator",
          "type": "address"
        }
      ],
      "name": "isValidator",
      "outputs": [
        {
          "internalType": "bool",
          "name": "",
          "type": "bool"
        }
      ],
      "stateMutability": "view",
      "type": "function"
    },
    {
      "inputs": [],
      "name": "sendInheritanceAmount",
      "outputs": [],
      "stateMutability": "payable",
      "type": "function"
    },
    {
      "stateMutability": "payable",
      "type": "receive"
    }
  ],
  "bytecode": "0x608060405234801561001057600080fd5b506117c3806100206000396000f3fe6080604052600436106101185760003560e01c80637bc02403116100a0578063af43715f11610064578063af43715f14610450578063b5018db714610470578063d74ea1e51461049d578063e5a489a7146104f5578063f9560e451461051557600080fd5b80637bc02403146103e057806396074e70146103f557806399b4331d14610408578063aab7c6d714610410578063ad81907a1461043057600080fd5b806349d1a060116100e757806349d1a060146101fe5780634d238c8e146102845780636122fed5146102a45780636983d64c1461034f57806378bfecaf146103b057600080fd5b80630a6cef461461012457806315889d991461016857806319b699f21461017f5780632423c7f3146101b757600080fd5b3661011f57005b600080fd5b34801561013057600080fd5b5061014461013f3660046115d2565b61054e565b604080516001600160a01b0390931683526020830191909152015b60405180910390f35b34801561017457600080fd5b5061017d61064b565b005b34801561018b57600080fd5b5061019f61019a3660046115fc565b610765565b6040516001600160a01b03909116815260200161015f565b3480156101c357600080fd5b506101f06101d2366004611615565b6001600160a01b031660009081526020819052604090206004015490565b60405190815260200161015f565b34801561020a57600080fd5b50610258610219366004611615565b6001600160a01b0316600090815260208190526040902080546001820154600283015460089093015460ff808416956101009094048116949293911690565b60408051951515865293151560208601529284019190915260608301521515608082015260a00161015f565b34801561029057600080fd5b5061017d61029f366004611615565b61078f565b3480156102b057600080fd5b506103076102bf366004611615565b6000602081905290815260409020805460018201546002830154600484015460068501546007860154600887015460099097015460ff80881698610100909804811697169089565b604080519915158a5297151560208a0152968801959095526060870193909352608086019190915260a085015260c0840152151560e08301526101008201526101200161015f565b34801561035b57600080fd5b5061039561036a366004611615565b6001600160a01b03166000908152602081905260409020600681015460018201546002909201549092565b6040805193845260208401929092529082015260600161015f565b3480156103bc57600080fd5b506103d06103cb3660046115d2565b610915565b604051901515815260200161015f565b3480156103ec57600080fd5b506101f06109a6565b61017d6104033660046115d2565b610a0a565b61017d610c55565b34801561041c57600080fd5b5061017d61042b366004611615565b610d57565b34801561043c57600080fd5b5061019f61044b3660046115d2565b611084565b34801561045c57600080fd5b506101f061046b366004611637565b611109565b34801561047c57600080fd5b5061049061048b366004611615565b611217565b60405161015f919061166a565b3480156104a957600080fd5b506104d33360009081526020819052604090208054600782015460099092015460ff909116924790565b604080519415158552602085019390935291830152606082015260800161015f565b34801561050157600080fd5b506103d0610510366004611637565b61136a565b34801561052157600080fd5b506101f0610530366004611615565b6001600160a01b031660009081526020819052604090206006015490565b6001600160a01b038216600090815260208190526040812054819060ff166105b55760405162461bcd60e51b8152602060048201526015602482015274125b9a195c9a5d185b98d9481b9bdd08199bdd5b99605a1b60448201526064015b60405180910390fd5b6001600160a01b03841660009081526020819052604090206004015483106106175760405162461bcd60e51b815260206004820152601560248201527410995b99599a58da585c9e481b9bdd08199bdd5b99605a1b60448201526064016105ac565b50506001600160a01b0391821660009081526020818152604080832093835260039093019052208054600190910154911691565b3360009081526020819052604090205460ff16156106ab5760405162461bcd60e51b815260206004820152601a60248201527f496e6865726974616e636520616c72656164792065786973747300000000000060448201526064016105ac565b33600081815260208190526040808220805461ffff1916600190811782558082018490556002820181905560048201849055600682018490556007820184905560088201805460ff1916905560098201849055805480820182559084527fb10e2d527612073b26eecdfd717e6a320cf44b4afac2b0732d9fcbe2b7fa0cf60180546001600160a01b0319168517905590519092917fa887cc0c83620039f5804b762d01b310e2dedc32d3c9111412280cd541d5a77391a250565b6001818154811061077557600080fd5b6000918252602090912001546001600160a01b0316905081565b3360008181526020819052604090205460ff166107be5760405162461bcd60e51b81526004016105ac906116b7565b6001600160a01b0382166108145760405162461bcd60e51b815260206004820152601960248201527f496e76616c69642076616c696461746f7220616464726573730000000000000060448201526064016105ac565b33600090815260208190526040902054610100900460ff16156108495760405162461bcd60e51b81526004016105ac906116f8565b33600081815260208181526040808320600681018054835180850185526001600160a01b038a81168252818701888152838952600590950187529487209051815494511515600160a01b026001600160a81b031990951695169490941792909217909255938352908290528054916108c083611735565b9091555050336000818152602081905260408082206006810154600290910155516001600160a01b03861692917f8064a302796c89446a96d63470b5b036212da26bd2debe5bec73e0170a9a5e8391a3505050565b6001600160a01b038216600090815260208190526040812060060154821061096f5760405162461bcd60e51b815260206004820152600d60248201526c092dcecc2d8d2c840d2dcc8caf609b1b60448201526064016105ac565b506001600160a01b038216600090815260208181526040808320848452600501909152902054600160a01b900460ff165b92915050565b3360009081526020819052604081205460ff16610a055760405162461bcd60e51b815260206004820152601b60248201527f4e6f2061637469766520696e6865726974616e636520666f756e64000000000060448201526064016105ac565b504790565b3360008181526020819052604090205460ff16610a395760405162461bcd60e51b81526004016105ac906116b7565b6001600160a01b038316610a8f5760405162461bcd60e51b815260206004820152601b60248201527f496e76616c69642062656e65666963696172792061646472657373000000000060448201526064016105ac565b60008211610adf5760405162461bcd60e51b815260206004820152601d60248201527f416d6f756e74206d7573742062652067726561746572207468616e203000000060448201526064016105ac565b813414610b3d5760405162461bcd60e51b815260206004820152602660248201527f4d7573742073656e6420657861637420616d6f756e7420666f722062656e656660448201526569636961727960d01b60648201526084016105ac565b33600090815260208190526040902054610100900460ff1615610b725760405162461bcd60e51b81526004016105ac906116f8565b33600081815260208181526040808320600481018054835180850185526001600160a01b038b811682528187018b815283895260039095018752948720905181546001600160a01b0319169516949094178455915160019093019290925593835290829052805491610be383611735565b90915550503360009081526020819052604081206009018054859290610c0a90849061174e565b90915550506040518381526001600160a01b0385169033907f5d081d791b64899adab031015397ef8d7600501212ef97573b9e50f8c9bb6d9b9060200160405180910390a350505050565b3360009081526020819052604090205460ff16610cb45760405162461bcd60e51b815260206004820152601b60248201527f4e6f2061637469766520696e6865726974616e636520666f756e64000000000060448201526064016105ac565b33600090815260208190526040902054610100900460ff1615610ce95760405162461bcd60e51b81526004016105ac906116f8565b336000908152602081905260409020600901543414610d555760405162461bcd60e51b815260206004820152602260248201527f4d7573742073656e6420657861637420696e6865726974616e636520616d6f756044820152611b9d60f21b60648201526084016105ac565b565b6001600160a01b038116600090815260208190526040902054819060ff16610d915760405162461bcd60e51b81526004016105ac906116b7565b6001600160a01b038216600090815260208190526040902054610100900460ff1615610dff5760405162461bcd60e51b815260206004820152601760248201527f446561746820616c726561647920636f6e6669726d656400000000000000000060448201526064016105ac565b6001600160a01b038216600090815260208190526040902060040154610e605760405162461bcd60e51b8152602060048201526016602482015275139bc818995b99599a58da585c9a595cc8185919195960521b60448201526064016105ac565b600080805b6001600160a01b038516600090815260208190526040902060060154811015610ed4576001600160a01b0385811660009081526020818152604080832085845260050190915290205433911603610ec25780925060019150610ed4565b80610ecc81611735565b915050610e65565b5080610f145760405162461bcd60e51b815260206004820152600f60248201526e2737ba1030903b30b634b230ba37b960891b60448201526064016105ac565b6001600160a01b038416600090815260208181526040808320858452600501909152902054600160a01b900460ff1615610f845760405162461bcd60e51b8152602060048201526011602482015270105b1c9958591e4818dbdb999a5c9b5959607a1b60448201526064016105ac565b6001600160a01b038416600081815260208181526040808320868452600581018352908320805460ff60a01b1916600160a01b179055928252819052600191909101805491610fd283611735565b90915550506001600160a01b038416600081815260208181526040918290206001015491519182523392917f8af56bba0af6fb33e99284318ba113350ec3f9424b6263a8b01b6e00fb2651ea910160405180910390a36001600160a01b038416600090815260208190526040902060068101546001909101540361107e576001600160a01b0384166000908152602081905260409020805461ff00191661010017905561107e8461140e565b50505050565b6001600160a01b03821660009081526020819052604081206006015482106110de5760405162461bcd60e51b815260206004820152600d60248201526c092dcecc2d8d2c840d2dcc8caf609b1b60448201526064016105ac565b506001600160a01b039182166000908152602081815260408083209383526005909301905220541690565b6001600160a01b03821660009081526020819052604081205460ff166111695760405162461bcd60e51b8152602060048201526015602482015274125b9a195c9a5d185b98d9481b9bdd08199bdd5b99605a1b60448201526064016105ac565b60005b6001600160a01b0384166000908152602081905260409020600601548110156111d8576001600160a01b038481166000908152602081815260408083208584526005019091529020548185169116036111c65790506109a0565b806111d081611735565b91505061116c565b5060405162461bcd60e51b815260206004820152601360248201527215985b1a59185d1bdc881b9bdd08199bdd5b99606a1b60448201526064016105ac565b60606000805b6001548110156112835760006001828154811061123c5761123c611761565b6000918252602090912001546001600160a01b0316905061125d818661136a565b15611270578261126c81611735565b9350505b508061127b81611735565b91505061121d565b5060008167ffffffffffffffff81111561129f5761129f611777565b6040519080825280602002602001820160405280156112c8578160200160208202803683370190505b5090506000805b600154811015611360576000600182815481106112ee576112ee611761565b6000918252602090912001546001600160a01b0316905061130f818861136a565b1561134d578084848151811061132757611327611761565b6001600160a01b03909216602092830291909101909101528261134981611735565b9350505b508061135881611735565b9150506112cf565b5090949350505050565b6001600160a01b03821660009081526020819052604081205460ff16611392575060006109a0565b60005b6001600160a01b038416600090815260208190526040902060060154811015611404576001600160a01b038481166000908152602081815260408083208584526005019091529020548185169116036113f25760019150506109a0565b806113fc81611735565b915050611395565b5060009392505050565b6001600160a01b03811660009081526020819052604090206008015460ff16156114705760405162461bcd60e51b8152602060048201526013602482015272105b1c9958591e48191a5cdd1c9a589d5d1959606a1b60448201526064016105ac565b60005b6001600160a01b038216600090815260208190526040902060040154811015611566576001600160a01b0382811660009081526020818152604080832085845260030190915280822080546001909101549151931692909190839083908381818185875af1925050503d8060008114611508576040519150601f19603f3d011682016040523d82523d6000602084013e61150d565b606091505b50509050806115505760405162461bcd60e51b815260206004820152600f60248201526e151c985b9cd9995c8819985a5b1959608a1b60448201526064016105ac565b505050808061155e90611735565b915050611473565b506001600160a01b038116600081815260208190526040808220600801805460ff19166001179055517fe22111dd7904e8aca32090f5631e0ca476ced5e3081ccb9528640ae57f46880d9190a250565b80356001600160a01b03811681146115cd57600080fd5b919050565b600080604083850312156115e557600080fd5b6115ee836115b6565b946020939093013593505050565b60006020828403121561160e57600080fd5b5035919050565b60006020828403121561162757600080fd5b611630826115b6565b9392505050565b6000806040838503121561164a57600080fd5b611653836115b6565b9150611661602084016115b6565b90509250929050565b6020808252825182820181905260009190848201906040850190845b818110156116ab5783516001600160a01b031683529284019291840191600101611686565b50909695505050505050565b60208082526021908201527f496e6865726974616e6365206e6f7420666f756e64206f7220696e61637469766040820152606560f81b606082015260800190565b6020808252600d908201526c13dddb995c881a5cc819195859609a1b604082015260600190565b634e487b7160e01b600052601160045260246000fd5b6000600182016117475761174761171f565b5060010190565b808201808211156109a0576109a061171f565b634e487b7160e01b600052603260045260246000fd5b634e487b7160e01b600052604160045260246000fdfea26469706673582212200941772a8b97a7c5e8e74361ae3727347fafdf26108586356c16ed3655a1d5c264736f6c63430008130033",
  "linkReferences": {},
  "deployedLinkReferences": {}
}